{
  "_format": "hh-sol-artifact-1",
  "contractName": "REstate",
  "sourceName": "contracts/REstate.sol",
  "abi": [
    {
      "inputs": [],
      "stateMutability": "nonpayable",
      "type": "constructor"
    },
    {
      "anonymous": false,
      "inputs": [
        {
          "indexed": true,
          "internalType": "address",
          "name": "owner",
          "type": "address"
        },
        {
          "indexed": true,
          "internalType": "address",
          "name": "approved",
          "type": "address"
        },
        {
          "indexed": true,
          "internalType": "uint256",
          "name": "tokenId",
          "type": "uint256"
        }
      ],
      "name": "Approval",
      "type": "event"
    },
    {
      "anonymous": false,
      "inputs": [
        {
          "indexed": true,
          "internalType": "address",
          "name": "owner",
          "type": "address"
        },
        {
          "indexed": true,
          "internalType": "address",
          "name": "operator",
          "type": "address"
        },
        {
          "indexed": false,
          "internalType": "bool",
          "name": "approved",
          "type": "bool"
        }
      ],
      "name": "ApprovalForAll",
      "type": "event"
    },
    {
      "anonymous": false,
      "inputs": [
        {
          "indexed": true,
          "internalType": "address",
          "name": "from",
          "type": "address"
        },
        {
          "indexed": true,
          "internalType": "address",
          "name": "to",
          "type": "address"
        },
        {
          "indexed": true,
          "internalType": "uint256",
          "name": "tokenId",
          "type": "uint256"
        }
      ],
      "name": "Transfer",
      "type": "event"
    },
    {
      "inputs": [
        {
          "internalType": "address",
          "name": "to",
          "type": "address"
        },
        {
          "internalType": "uint256",
          "name": "tokenId",
          "type": "uint256"
        }
      ],
      "name": "approve",
      "outputs": [],
      "stateMutability": "nonpayable",
      "type": "function"
    },
    {
      "inputs": [
        {
          "internalType": "address",
          "name": "owner",
          "type": "address"
        }
      ],
      "name": "balanceOf",
      "outputs": [
        {
          "internalType": "uint256",
          "name": "",
          "type": "uint256"
        }
      ],
      "stateMutability": "view",
      "type": "function"
    },
    {
      "inputs": [
        {
          "internalType": "string",
          "name": "tokenURI",
          "type": "string"
        },
        {
          "internalType": "uint256",
          "name": "price",
          "type": "uint256"
        },
        {
          "internalType": "string",
          "name": "_name",
          "type": "string"
        }
      ],
      "name": "createToken",
      "outputs": [
        {
          "internalType": "uint256",
          "name": "",
          "type": "uint256"
        }
      ],
      "stateMutability": "payable",
      "type": "function"
    },
    {
      "inputs": [
        {
          "internalType": "uint256",
          "name": "tokenId",
          "type": "uint256"
        }
      ],
      "name": "executeSale",
      "outputs": [],
      "stateMutability": "payable",
      "type": "function"
    },
    {
      "inputs": [],
      "name": "getAllPropertys",
      "outputs": [
        {
          "components": [
            {
              "internalType": "uint256",
              "name": "tokenId",
              "type": "uint256"
            },
            {
              "internalType": "address payable",
              "name": "owner",
              "type": "address"
            },
            {
              "internalType": "address payable",
              "name": "seller",
              "type": "address"
            },
            {
              "internalType": "uint256",
              "name": "price",
              "type": "uint256"
            },
            {
              "internalType": "bool",
              "name": "currentlyListed",
              "type": "bool"
            },
            {
              "internalType": "string",
              "name": "name",
              "type": "string"
            }
          ],
          "internalType": "struct REstate.ListedProperty[]",
          "name": "",
          "type": "tuple[]"
        }
      ],
      "stateMutability": "view",
      "type": "function"
    },
    {
      "inputs": [
        {
          "internalType": "uint256",
          "name": "tokenId",
          "type": "uint256"
        }
      ],
      "name": "getApproved",
      "outputs": [
        {
          "internalType": "address",
          "name": "",
          "type": "address"
        }
      ],
      "stateMutability": "view",
      "type": "function"
    },
    {
      "inputs": [],
      "name": "getCurrentTokenId",
      "outputs": [
        {
          "internalType": "uint256",
          "name": "",
          "type": "uint256"
        }
      ],
      "stateMutability": "view",
      "type": "function"
    },
    {
      "inputs": [],
      "name": "getLatestIdToListedProperty",
      "outputs": [
        {
          "components": [
            {
              "internalType": "uint256",
              "name": "tokenId",
              "type": "uint256"
            },
            {
              "internalType": "address payable",
              "name": "owner",
              "type": "address"
            },
            {
              "internalType": "address payable",
              "name": "seller",
              "type": "address"
            },
            {
              "internalType": "uint256",
              "name": "price",
              "type": "uint256"
            },
            {
              "internalType": "bool",
              "name": "currentlyListed",
              "type": "bool"
            },
            {
              "internalType": "string",
              "name": "name",
              "type": "string"
            }
          ],
          "internalType": "struct REstate.ListedProperty",
          "name": "",
          "type": "tuple"
        }
      ],
      "stateMutability": "view",
      "type": "function"
    },
    {
      "inputs": [],
      "name": "getListPrice",
      "outputs": [
        {
          "internalType": "uint256",
          "name": "",
          "type": "uint256"
        }
      ],
      "stateMutability": "view",
      "type": "function"
    },
    {
      "inputs": [
        {
          "internalType": "uint256",
          "name": "tokenId",
          "type": "uint256"
        }
      ],
      "name": "getListedForTokenId",
      "outputs": [
        {
          "components": [
            {
              "internalType": "uint256",
              "name": "tokenId",
              "type": "uint256"
            },
            {
              "internalType": "address payable",
              "name": "owner",
              "type": "address"
            },
            {
              "internalType": "address payable",
              "name": "seller",
              "type": "address"
            },
            {
              "internalType": "uint256",
              "name": "price",
              "type": "uint256"
            },
            {
              "internalType": "bool",
              "name": "currentlyListed",
              "type": "bool"
            },
            {
              "internalType": "string",
              "name": "name",
              "type": "string"
            }
          ],
          "internalType": "struct REstate.ListedProperty",
          "name": "",
          "type": "tuple"
        }
      ],
      "stateMutability": "view",
      "type": "function"
    },
    {
      "inputs": [],
      "name": "getMyPropertys",
      "outputs": [
        {
          "components": [
            {
              "internalType": "uint256",
              "name": "tokenId",
              "type": "uint256"
            },
            {
              "internalType": "address payable",
              "name": "owner",
              "type": "address"
            },
            {
              "internalType": "address payable",
              "name": "seller",
              "type": "address"
            },
            {
              "internalType": "uint256",
              "name": "price",
              "type": "uint256"
            },
            {
              "internalType": "bool",
              "name": "currentlyListed",
              "type": "bool"
            },
            {
              "internalType": "string",
              "name": "name",
              "type": "string"
            }
          ],
          "internalType": "struct REstate.ListedProperty[]",
          "name": "",
          "type": "tuple[]"
        }
      ],
      "stateMutability": "view",
      "type": "function"
    },
    {
      "inputs": [
        {
          "internalType": "address",
          "name": "owner",
          "type": "address"
        },
        {
          "internalType": "address",
          "name": "operator",
          "type": "address"
        }
      ],
      "name": "isApprovedForAll",
      "outputs": [
        {
          "internalType": "bool",
          "name": "",
          "type": "bool"
        }
      ],
      "stateMutability": "view",
      "type": "function"
    },
    {
      "inputs": [],
      "name": "name",
      "outputs": [
        {
          "internalType": "string",
          "name": "",
          "type": "string"
        }
      ],
      "stateMutability": "view",
      "type": "function"
    },
    {
      "inputs": [
        {
          "internalType": "uint256",
          "name": "tokenId",
          "type": "uint256"
        }
      ],
      "name": "ownerOf",
      "outputs": [
        {
          "internalType": "address",
          "name": "",
          "type": "address"
        }
      ],
      "stateMutability": "view",
      "type": "function"
    },
    {
      "inputs": [
        {
          "internalType": "address",
          "name": "from",
          "type": "address"
        },
        {
          "internalType": "address",
          "name": "to",
          "type": "address"
        },
        {
          "internalType": "uint256",
          "name": "tokenId",
          "type": "uint256"
        }
      ],
      "name": "safeTransferFrom",
      "outputs": [],
      "stateMutability": "nonpayable",
      "type": "function"
    },
    {
      "inputs": [
        {
          "internalType": "address",
          "name": "from",
          "type": "address"
        },
        {
          "internalType": "address",
          "name": "to",
          "type": "address"
        },
        {
          "internalType": "uint256",
          "name": "tokenId",
          "type": "uint256"
        },
        {
          "internalType": "bytes",
          "name": "data",
          "type": "bytes"
        }
      ],
      "name": "safeTransferFrom",
      "outputs": [],
      "stateMutability": "nonpayable",
      "type": "function"
    },
    {
      "inputs": [
        {
          "internalType": "address",
          "name": "operator",
          "type": "address"
        },
        {
          "internalType": "bool",
          "name": "approved",
          "type": "bool"
        }
      ],
      "name": "setApprovalForAll",
      "outputs": [],
      "stateMutability": "nonpayable",
      "type": "function"
    },
    {
      "inputs": [
        {
          "internalType": "bytes4",
          "name": "interfaceId",
          "type": "bytes4"
        }
      ],
      "name": "supportsInterface",
      "outputs": [
        {
          "internalType": "bool",
          "name": "",
          "type": "bool"
        }
      ],
      "stateMutability": "view",
      "type": "function"
    },
    {
      "inputs": [],
      "name": "symbol",
      "outputs": [
        {
          "internalType": "string",
          "name": "",
          "type": "string"
        }
      ],
      "stateMutability": "view",
      "type": "function"
    },
    {
      "inputs": [
        {
          "internalType": "uint256",
          "name": "tokenId",
          "type": "uint256"
        }
      ],
      "name": "tokenURI",
      "outputs": [
        {
          "internalType": "string",
          "name": "",
          "type": "string"
        }
      ],
      "stateMutability": "view",
      "type": "function"
    },
    {
      "inputs": [
        {
          "internalType": "address",
          "name": "from",
          "type": "address"
        },
        {
          "internalType": "address",
          "name": "to",
          "type": "address"
        },
        {
          "internalType": "uint256",
          "name": "tokenId",
          "type": "uint256"
        }
      ],
      "name": "transferFrom",
      "outputs": [],
      "stateMutability": "nonpayable",
      "type": "function"
    },
    {
      "inputs": [
        {
          "internalType": "uint256",
          "name": "_listPrice",
          "type": "uint256"
        }
      ],
      "name": "updateListPrice",
      "outputs": [],
      "stateMutability": "payable",
      "type": "function"
    }
  ],
  "bytecode": "0x6080604052662386f26fc10000600a553480156200001c57600080fd5b506040518060400160405280600881526020017f522d4573746174650000000000000000000000000000000000000000000000008152506040518060400160405280600381526020017f52535400000000000000000000000000000000000000000000000000000000008152508160009080519060200190620000a192919062000104565b508060019080519060200190620000ba92919062000104565b50505033600760006101000a81548173ffffffffffffffffffffffffffffffffffffffff021916908373ffffffffffffffffffffffffffffffffffffffff16021790555062000219565b8280546200011290620001e3565b90600052602060002090601f01602090048101928262000136576000855562000182565b82601f106200015157805160ff191683800117855562000182565b8280016001018555821562000182579182015b828111156200018157825182559160200191906001019062000164565b5b50905062000191919062000195565b5090565b5b80821115620001b057600081600090555060010162000196565b5090565b7f4e487b7100000000000000000000000000000000000000000000000000000000600052602260045260246000fd5b60006002820490506001821680620001fc57607f821691505b60208210811415620002135762000212620001b4565b5b50919050565b6140e480620002296000396000f3fe6080604052600436106101355760003560e01c806370a08231116100ab578063a22cb4651161006f578063a22cb4651461042f578063b88d4fde14610458578063c322579c14610481578063c6c9b5b11461049d578063c87b56dd146104cd578063e985e9c51461050a57610135565b806370a082311461034357806395d89b4114610380578063973b3e06146103ab57806398c3df16146103d65780639b1225c41461041357610135565b806336bdda45116100fd57806336bdda451461023157806342842e0e1461025c5780634fa42ce11461028557806356189236146102b05780636352211e146102db57806368f1945f1461031857610135565b806301ffc9a71461013a57806306fdde0314610177578063081812fc146101a2578063095ea7b3146101df57806323b872dd14610208575b600080fd5b34801561014657600080fd5b50610161600480360381019061015c9190612cb6565b610547565b60405161016e9190612cfe565b60405180910390f35b34801561018357600080fd5b5061018c610629565b6040516101999190612db2565b60405180910390f35b3480156101ae57600080fd5b506101c960048036038101906101c49190612e0a565b6106bb565b6040516101d69190612e78565b60405180910390f35b3480156101eb57600080fd5b5061020660048036038101906102019190612ebf565b610701565b005b34801561021457600080fd5b5061022f600480360381019061022a9190612eff565b610819565b005b34801561023d57600080fd5b50610246610879565b6040516102539190613126565b60405180910390f35b34801561026857600080fd5b50610283600480360381019061027e9190612eff565b610ce9565b005b34801561029157600080fd5b5061029a610d09565b6040516102a79190613126565b60405180910390f35b3480156102bc57600080fd5b506102c5610f6a565b6040516102d29190613157565b60405180910390f35b3480156102e757600080fd5b5061030260048036038101906102fd9190612e0a565b610f7b565b60405161030f9190612e78565b60405180910390f35b34801561032457600080fd5b5061032d611002565b60405161033a9190613157565b60405180910390f35b34801561034f57600080fd5b5061036a60048036038101906103659190613172565b61100c565b6040516103779190613157565b60405180910390f35b34801561038c57600080fd5b506103956110c4565b6040516103a29190612db2565b60405180910390f35b3480156103b757600080fd5b506103c0611156565b6040516103cd9190613228565b60405180910390f35b3480156103e257600080fd5b506103fd60048036038101906103f89190612e0a565b6112fd565b60405161040a9190613228565b60405180910390f35b61042d60048036038101906104289190612e0a565b611497565b005b34801561043b57600080fd5b5061045660048036038101906104519190613276565b611689565b005b34801561046457600080fd5b5061047f600480360381019061047a91906133eb565b61169f565b005b61049b60048036038101906104969190612e0a565b611701565b005b6104b760048036038101906104b2919061350f565b611765565b6040516104c49190613157565b60405180910390f35b3480156104d957600080fd5b506104f460048036038101906104ef9190612e0a565b611830565b6040516105019190612db2565b60405180910390f35b34801561051657600080fd5b50610531600480360381019061052c919061359a565b611943565b60405161053e9190612cfe565b60405180910390f35b60007f80ac58cd000000000000000000000000000000000000000000000000000000007bffffffffffffffffffffffffffffffffffffffffffffffffffffffff1916827bffffffffffffffffffffffffffffffffffffffffffffffffffffffff1916148061061257507f5b5e139f000000000000000000000000000000000000000000000000000000007bffffffffffffffffffffffffffffffffffffffffffffffffffffffff1916827bffffffffffffffffffffffffffffffffffffffffffffffffffffffff1916145b806106225750610621826119d7565b5b9050919050565b60606000805461063890613609565b80601f016020809104026020016040519081016040528092919081815260200182805461066490613609565b80156106b15780601f10610686576101008083540402835291602001916106b1565b820191906000526020600020905b81548152906001019060200180831161069457829003601f168201915b5050505050905090565b60006106c682611a41565b6004600083815260200190815260200160002060009054906101000a900473ffffffffffffffffffffffffffffffffffffffff169050919050565b600061070c82610f7b565b90508073ffffffffffffffffffffffffffffffffffffffff168373ffffffffffffffffffffffffffffffffffffffff16141561077d576040517f08c379a0000000000000000000000000000000000000000000000000000000008152600401610774906136ad565b60405180910390fd5b8073ffffffffffffffffffffffffffffffffffffffff1661079c611a8c565b73ffffffffffffffffffffffffffffffffffffffff1614806107cb57506107ca816107c5611a8c565b611943565b5b61080a576040517f08c379a00000000000000000000000000000000000000000000000000000000081526004016108019061373f565b60405180910390fd5b6108148383611a94565b505050565b61082a610824611a8c565b82611b4d565b610869576040517f08c379a0000000000000000000000000000000000000000000000000000000008152600401610860906137d1565b60405180910390fd5b610874838383611be2565b505050565b606060006108876008611edc565b905060008060005b838110156109a8573373ffffffffffffffffffffffffffffffffffffffff16600b60006001846108bf9190613820565b815260200190815260200160002060010160009054906101000a900473ffffffffffffffffffffffffffffffffffffffff1673ffffffffffffffffffffffffffffffffffffffff16148061098057503373ffffffffffffffffffffffffffffffffffffffff16600b60006001846109369190613820565b815260200190815260200160002060020160009054906101000a900473ffffffffffffffffffffffffffffffffffffffff1673ffffffffffffffffffffffffffffffffffffffff16145b15610995576001836109929190613820565b92505b80806109a090613876565b91505061088f565b5060008267ffffffffffffffff8111156109c5576109c46132c0565b5b6040519080825280602002602001820160405280156109fe57816020015b6109eb612b43565b8152602001906001900390816109e35790505b50905060005b84811015610cde573373ffffffffffffffffffffffffffffffffffffffff16600b6000600184610a349190613820565b815260200190815260200160002060010160009054906101000a900473ffffffffffffffffffffffffffffffffffffffff1673ffffffffffffffffffffffffffffffffffffffff161480610af557503373ffffffffffffffffffffffffffffffffffffffff16600b6000600184610aab9190613820565b815260200190815260200160002060020160009054906101000a900473ffffffffffffffffffffffffffffffffffffffff1673ffffffffffffffffffffffffffffffffffffffff16145b15610ccb576000600182610b099190613820565b90506000600b60008381526020019081526020016000209050806040518060c0016040529081600082015481526020016001820160009054906101000a900473ffffffffffffffffffffffffffffffffffffffff1673ffffffffffffffffffffffffffffffffffffffff1673ffffffffffffffffffffffffffffffffffffffff1681526020016002820160009054906101000a900473ffffffffffffffffffffffffffffffffffffffff1673ffffffffffffffffffffffffffffffffffffffff1673ffffffffffffffffffffffffffffffffffffffff168152602001600382015481526020016004820160009054906101000a900460ff16151515158152602001600582018054610c1990613609565b80601f0160208091040260200160405190810160405280929190818152602001828054610c4590613609565b8015610c925780601f10610c6757610100808354040283529160200191610c92565b820191906000526020600020905b815481529060010190602001808311610c7557829003601f168201915b505050505081525050848681518110610cae57610cad6138bf565b5b6020026020010181905250600185610cc69190613820565b945050505b8080610cd690613876565b915050610a04565b508094505050505090565b610d048383836040518060200160405280600081525061169f565b505050565b60606000610d176008611edc565b905060008167ffffffffffffffff811115610d3557610d346132c0565b5b604051908082528060200260200182016040528015610d6e57816020015b610d5b612b43565b815260200190600190039081610d535790505b5090506000805b83811015610f60576000600182610d8c9190613820565b90506000600b60008381526020019081526020016000209050806040518060c0016040529081600082015481526020016001820160009054906101000a900473ffffffffffffffffffffffffffffffffffffffff1673ffffffffffffffffffffffffffffffffffffffff1673ffffffffffffffffffffffffffffffffffffffff1681526020016002820160009054906101000a900473ffffffffffffffffffffffffffffffffffffffff1673ffffffffffffffffffffffffffffffffffffffff1673ffffffffffffffffffffffffffffffffffffffff168152602001600382015481526020016004820160009054906101000a900460ff16151515158152602001600582018054610e9c90613609565b80601f0160208091040260200160405190810160405280929190818152602001828054610ec890613609565b8015610f155780601f10610eea57610100808354040283529160200191610f15565b820191906000526020600020905b815481529060010190602001808311610ef857829003601f168201915b505050505081525050858581518110610f3157610f306138bf565b5b6020026020010181905250600184610f499190613820565b935050508080610f5890613876565b915050610d75565b5081935050505090565b6000610f766008611edc565b905090565b600080610f8783611eea565b9050600073ffffffffffffffffffffffffffffffffffffffff168173ffffffffffffffffffffffffffffffffffffffff161415610ff9576040517f08c379a0000000000000000000000000000000000000000000000000000000008152600401610ff09061393a565b60405180910390fd5b80915050919050565b6000600a54905090565b60008073ffffffffffffffffffffffffffffffffffffffff168273ffffffffffffffffffffffffffffffffffffffff16141561107d576040517f08c379a0000000000000000000000000000000000000000000000000000000008152600401611074906139cc565b60405180910390fd5b600360008373ffffffffffffffffffffffffffffffffffffffff1673ffffffffffffffffffffffffffffffffffffffff168152602001908152602001600020549050919050565b6060600180546110d390613609565b80601f01602080910402602001604051908101604052809291908181526020018280546110ff90613609565b801561114c5780601f106111215761010080835404028352916020019161114c565b820191906000526020600020905b81548152906001019060200180831161112f57829003601f168201915b5050505050905090565b61115e612b43565b600061116a6008611edc565b9050600b60008281526020019081526020016000206040518060c0016040529081600082015481526020016001820160009054906101000a900473ffffffffffffffffffffffffffffffffffffffff1673ffffffffffffffffffffffffffffffffffffffff1673ffffffffffffffffffffffffffffffffffffffff1681526020016002820160009054906101000a900473ffffffffffffffffffffffffffffffffffffffff1673ffffffffffffffffffffffffffffffffffffffff1673ffffffffffffffffffffffffffffffffffffffff168152602001600382015481526020016004820160009054906101000a900460ff1615151515815260200160058201805461127590613609565b80601f01602080910402602001604051908101604052809291908181526020018280546112a190613609565b80156112ee5780601f106112c3576101008083540402835291602001916112ee565b820191906000526020600020905b8154815290600101906020018083116112d157829003601f168201915b50505050508152505091505090565b611305612b43565b600b60008381526020019081526020016000206040518060c0016040529081600082015481526020016001820160009054906101000a900473ffffffffffffffffffffffffffffffffffffffff1673ffffffffffffffffffffffffffffffffffffffff1673ffffffffffffffffffffffffffffffffffffffff1681526020016002820160009054906101000a900473ffffffffffffffffffffffffffffffffffffffff1673ffffffffffffffffffffffffffffffffffffffff1673ffffffffffffffffffffffffffffffffffffffff168152602001600382015481526020016004820160009054906101000a900460ff1615151515815260200160058201805461140e90613609565b80601f016020809104026020016040519081016040528092919081815260200182805461143a90613609565b80156114875780601f1061145c57610100808354040283529160200191611487565b820191906000526020600020905b81548152906001019060200180831161146a57829003601f168201915b5050505050815250509050919050565b6000600b60008381526020019081526020016000206003015490508034146114f4576040517f08c379a00000000000000000000000000000000000000000000000000000000081526004016114eb90613a5e565b60405180910390fd5b6000600b600084815260200190815260200160002060020160009054906101000a900473ffffffffffffffffffffffffffffffffffffffff1690506001600b600085815260200190815260200160002060040160006101000a81548160ff02191690831515021790555033600b600085815260200190815260200160002060020160006101000a81548173ffffffffffffffffffffffffffffffffffffffff021916908373ffffffffffffffffffffffffffffffffffffffff1602179055506115bd6009611f27565b6115c8303385611be2565b6115d23084610701565b600760009054906101000a900473ffffffffffffffffffffffffffffffffffffffff1673ffffffffffffffffffffffffffffffffffffffff166108fc600a549081150290604051600060405180830381858888f1935050505015801561163c573d6000803e3d6000fd5b508073ffffffffffffffffffffffffffffffffffffffff166108fc349081150290604051600060405180830381858888f19350505050158015611683573d6000803e3d6000fd5b50505050565b61169b611694611a8c565b8383611f3d565b5050565b6116b06116aa611a8c565b83611b4d565b6116ef576040517f08c379a00000000000000000000000000000000000000000000000000000000081526004016116e6906137d1565b60405180910390fd5b6116fb848484846120aa565b50505050565b600760009054906101000a900473ffffffffffffffffffffffffffffffffffffffff1673ffffffffffffffffffffffffffffffffffffffff163373ffffffffffffffffffffffffffffffffffffffff161461175b57600080fd5b80600a8190555050565b6000600a5434146117ab576040517f08c379a00000000000000000000000000000000000000000000000000000000081526004016117a290613aca565b60405180910390fd5b600083116117ee576040517f08c379a00000000000000000000000000000000000000000000000000000000081526004016117e590613b5c565b60405180910390fd5b6117f86008611f27565b60006118046008611edc565b90506118103382612106565b61181a8186612124565b611825818585612198565b809150509392505050565b606061183b82611a41565b600060066000848152602001908152602001600020805461185b90613609565b80601f016020809104026020016040519081016040528092919081815260200182805461188790613609565b80156118d45780601f106118a9576101008083540402835291602001916118d4565b820191906000526020600020905b8154815290600101906020018083116118b757829003601f168201915b5050505050905060006118e56122f9565b90506000815114156118fb57819250505061193e565b600082511115611930578082604051602001611918929190613bb8565b6040516020818303038152906040529250505061193e565b61193984612310565b925050505b919050565b6000600560008473ffffffffffffffffffffffffffffffffffffffff1673ffffffffffffffffffffffffffffffffffffffff16815260200190815260200160002060008373ffffffffffffffffffffffffffffffffffffffff1673ffffffffffffffffffffffffffffffffffffffff16815260200190815260200160002060009054906101000a900460ff16905092915050565b60007f01ffc9a7000000000000000000000000000000000000000000000000000000007bffffffffffffffffffffffffffffffffffffffffffffffffffffffff1916827bffffffffffffffffffffffffffffffffffffffffffffffffffffffff1916149050919050565b611a4a81612378565b611a89576040517f08c379a0000000000000000000000000000000000000000000000000000000008152600401611a809061393a565b60405180910390fd5b50565b600033905090565b816004600083815260200190815260200160002060006101000a81548173ffffffffffffffffffffffffffffffffffffffff021916908373ffffffffffffffffffffffffffffffffffffffff160217905550808273ffffffffffffffffffffffffffffffffffffffff16611b0783610f7b565b73ffffffffffffffffffffffffffffffffffffffff167f8c5be1e5ebec7d5bd14f71427d1e84f3dd0314c0f7b2291e5b200ac8c7c3b92560405160405180910390a45050565b600080611b5983610f7b565b90508073ffffffffffffffffffffffffffffffffffffffff168473ffffffffffffffffffffffffffffffffffffffff161480611b9b5750611b9a8185611943565b5b80611bd957508373ffffffffffffffffffffffffffffffffffffffff16611bc1846106bb565b73ffffffffffffffffffffffffffffffffffffffff16145b91505092915050565b8273ffffffffffffffffffffffffffffffffffffffff16611c0282610f7b565b73ffffffffffffffffffffffffffffffffffffffff1614611c58576040517f08c379a0000000000000000000000000000000000000000000000000000000008152600401611c4f90613c4e565b60405180910390fd5b600073ffffffffffffffffffffffffffffffffffffffff168273ffffffffffffffffffffffffffffffffffffffff161415611cc8576040517f08c379a0000000000000000000000000000000000000000000000000000000008152600401611cbf90613ce0565b60405180910390fd5b611cd583838360016123b9565b8273ffffffffffffffffffffffffffffffffffffffff16611cf582610f7b565b73ffffffffffffffffffffffffffffffffffffffff1614611d4b576040517f08c379a0000000000000000000000000000000000000000000000000000000008152600401611d4290613c4e565b60405180910390fd5b6004600082815260200190815260200160002060006101000a81549073ffffffffffffffffffffffffffffffffffffffff02191690556001600360008573ffffffffffffffffffffffffffffffffffffffff1673ffffffffffffffffffffffffffffffffffffffff168152602001908152602001600020600082825403925050819055506001600360008473ffffffffffffffffffffffffffffffffffffffff1673ffffffffffffffffffffffffffffffffffffffff16815260200190815260200160002060008282540192505081905550816002600083815260200190815260200160002060006101000a81548173ffffffffffffffffffffffffffffffffffffffff021916908373ffffffffffffffffffffffffffffffffffffffff160217905550808273ffffffffffffffffffffffffffffffffffffffff168473ffffffffffffffffffffffffffffffffffffffff167fddf252ad1be2c89b69c2b068fc378daa952ba7f163c4a11628f55a4df523b3ef60405160405180910390a4611ed783838360016124df565b505050565b600081600001549050919050565b60006002600083815260200190815260200160002060009054906101000a900473ffffffffffffffffffffffffffffffffffffffff169050919050565b6001816000016000828254019250508190555050565b8173ffffffffffffffffffffffffffffffffffffffff168373ffffffffffffffffffffffffffffffffffffffff161415611fac576040517f08c379a0000000000000000000000000000000000000000000000000000000008152600401611fa390613d4c565b60405180910390fd5b80600560008573ffffffffffffffffffffffffffffffffffffffff1673ffffffffffffffffffffffffffffffffffffffff16815260200190815260200160002060008473ffffffffffffffffffffffffffffffffffffffff1673ffffffffffffffffffffffffffffffffffffffff16815260200190815260200160002060006101000a81548160ff0219169083151502179055508173ffffffffffffffffffffffffffffffffffffffff168373ffffffffffffffffffffffffffffffffffffffff167f17307eab39ab6107e8899845ad3d59bd9653f200f220920489ca2b5937696c318360405161209d9190612cfe565b60405180910390a3505050565b6120b5848484611be2565b6120c1848484846124e5565b612100576040517f08c379a00000000000000000000000000000000000000000000000000000000081526004016120f790613dde565b60405180910390fd5b50505050565b61212082826040518060200160405280600081525061267c565b5050565b61212d82612378565b61216c576040517f08c379a000000000000000000000000000000000000000000000000000000000815260040161216390613e70565b60405180910390fd5b80600660008481526020019081526020016000209080519060200190612193929190612ba7565b505050565b6040518060c001604052808481526020013073ffffffffffffffffffffffffffffffffffffffff1681526020013373ffffffffffffffffffffffffffffffffffffffff16815260200183815260200160011515815260200182815250600b60008581526020019081526020016000206000820151816000015560208201518160010160006101000a81548173ffffffffffffffffffffffffffffffffffffffff021916908373ffffffffffffffffffffffffffffffffffffffff16021790555060408201518160020160006101000a81548173ffffffffffffffffffffffffffffffffffffffff021916908373ffffffffffffffffffffffffffffffffffffffff1602179055506060820151816003015560808201518160040160006101000a81548160ff02191690831515021790555060a08201518160050190805190602001906122e5929190612ba7565b509050506122f4333085611be2565b505050565b606060405180602001604052806000815250905090565b606061231b82611a41565b60006123256122f9565b905060008151116123455760405180602001604052806000815250612370565b8061234f846126d7565b604051602001612360929190613bb8565b6040516020818303038152906040525b915050919050565b60008073ffffffffffffffffffffffffffffffffffffffff1661239a83611eea565b73ffffffffffffffffffffffffffffffffffffffff1614159050919050565b60018111156124d957600073ffffffffffffffffffffffffffffffffffffffff168473ffffffffffffffffffffffffffffffffffffffff161461244d5780600360008673ffffffffffffffffffffffffffffffffffffffff1673ffffffffffffffffffffffffffffffffffffffff16815260200190815260200160002060008282546124459190613e90565b925050819055505b600073ffffffffffffffffffffffffffffffffffffffff168373ffffffffffffffffffffffffffffffffffffffff16146124d85780600360008573ffffffffffffffffffffffffffffffffffffffff1673ffffffffffffffffffffffffffffffffffffffff16815260200190815260200160002060008282546124d09190613820565b925050819055505b5b50505050565b50505050565b60006125068473ffffffffffffffffffffffffffffffffffffffff166127af565b1561266f578373ffffffffffffffffffffffffffffffffffffffff1663150b7a0261252f611a8c565b8786866040518563ffffffff1660e01b81526004016125519493929190613f19565b602060405180830381600087803b15801561256b57600080fd5b505af192505050801561259c57506040513d601f19601f820116820180604052508101906125999190613f7a565b60015b61261f573d80600081146125cc576040519150601f19603f3d011682016040523d82523d6000602084013e6125d1565b606091505b50600081511415612617576040517f08c379a000000000000000000000000000000000000000000000000000000000815260040161260e90613dde565b60405180910390fd5b805181602001fd5b63150b7a0260e01b7bffffffffffffffffffffffffffffffffffffffffffffffffffffffff1916817bffffffffffffffffffffffffffffffffffffffffffffffffffffffff191614915050612674565b600190505b949350505050565b61268683836127d2565b61269360008484846124e5565b6126d2576040517f08c379a00000000000000000000000000000000000000000000000000000000081526004016126c990613dde565b60405180910390fd5b505050565b6060600060016126e6846129f0565b01905060008167ffffffffffffffff811115612705576127046132c0565b5b6040519080825280601f01601f1916602001820160405280156127375781602001600182028036833780820191505090505b509050600082602001820190505b6001156127a4578080600190039150507f3031323334353637383961626364656600000000000000000000000000000000600a86061a8153600a858161278e5761278d613fa7565b5b049450600085141561279f576127a4565b612745565b819350505050919050565b6000808273ffffffffffffffffffffffffffffffffffffffff163b119050919050565b600073ffffffffffffffffffffffffffffffffffffffff168273ffffffffffffffffffffffffffffffffffffffff161415612842576040517f08c379a000000000000000000000000000000000000000000000000000000000815260040161283990614022565b60405180910390fd5b61284b81612378565b1561288b576040517f08c379a00000000000000000000000000000000000000000000000000000000081526004016128829061408e565b60405180910390fd5b6128996000838360016123b9565b6128a281612378565b156128e2576040517f08c379a00000000000000000000000000000000000000000000000000000000081526004016128d99061408e565b60405180910390fd5b6001600360008473ffffffffffffffffffffffffffffffffffffffff1673ffffffffffffffffffffffffffffffffffffffff16815260200190815260200160002060008282540192505081905550816002600083815260200190815260200160002060006101000a81548173ffffffffffffffffffffffffffffffffffffffff021916908373ffffffffffffffffffffffffffffffffffffffff160217905550808273ffffffffffffffffffffffffffffffffffffffff16600073ffffffffffffffffffffffffffffffffffffffff167fddf252ad1be2c89b69c2b068fc378daa952ba7f163c4a11628f55a4df523b3ef60405160405180910390a46129ec6000838360016124df565b5050565b600080600090507a184f03e93ff9f4daa797ed6e38ed64bf6a1f0100000000000000008310612a4e577a184f03e93ff9f4daa797ed6e38ed64bf6a1f0100000000000000008381612a4457612a43613fa7565b5b0492506040810190505b6d04ee2d6d415b85acef81000000008310612a8b576d04ee2d6d415b85acef81000000008381612a8157612a80613fa7565b5b0492506020810190505b662386f26fc100008310612aba57662386f26fc100008381612ab057612aaf613fa7565b5b0492506010810190505b6305f5e1008310612ae3576305f5e1008381612ad957612ad8613fa7565b5b0492506008810190505b6127108310612b08576127108381612afe57612afd613fa7565b5b0492506004810190505b60648310612b2b5760648381612b2157612b20613fa7565b5b0492506002810190505b600a8310612b3a576001810190505b80915050919050565b6040518060c0016040528060008152602001600073ffffffffffffffffffffffffffffffffffffffff168152602001600073ffffffffffffffffffffffffffffffffffffffff16815260200160008152602001600015158152602001606081525090565b828054612bb390613609565b90600052602060002090601f016020900481019282612bd55760008555612c1c565b82601f10612bee57805160ff1916838001178555612c1c565b82800160010185558215612c1c579182015b82811115612c1b578251825591602001919060010190612c00565b5b509050612c299190612c2d565b5090565b5b80821115612c46576000816000905550600101612c2e565b5090565b6000604051905090565b600080fd5b600080fd5b60007fffffffff0000000000000000000000000000000000000000000000000000000082169050919050565b612c9381612c5e565b8114612c9e57600080fd5b50565b600081359050612cb081612c8a565b92915050565b600060208284031215612ccc57612ccb612c54565b5b6000612cda84828501612ca1565b91505092915050565b60008115159050919050565b612cf881612ce3565b82525050565b6000602082019050612d136000830184612cef565b92915050565b600081519050919050565b600082825260208201905092915050565b60005b83811015612d53578082015181840152602081019050612d38565b83811115612d62576000848401525b50505050565b6000601f19601f8301169050919050565b6000612d8482612d19565b612d8e8185612d24565b9350612d9e818560208601612d35565b612da781612d68565b840191505092915050565b60006020820190508181036000830152612dcc8184612d79565b905092915050565b6000819050919050565b612de781612dd4565b8114612df257600080fd5b50565b600081359050612e0481612dde565b92915050565b600060208284031215612e2057612e1f612c54565b5b6000612e2e84828501612df5565b91505092915050565b600073ffffffffffffffffffffffffffffffffffffffff82169050919050565b6000612e6282612e37565b9050919050565b612e7281612e57565b82525050565b6000602082019050612e8d6000830184612e69565b92915050565b612e9c81612e57565b8114612ea757600080fd5b50565b600081359050612eb981612e93565b92915050565b60008060408385031215612ed657612ed5612c54565b5b6000612ee485828601612eaa565b9250506020612ef585828601612df5565b9150509250929050565b600080600060608486031215612f1857612f17612c54565b5b6000612f2686828701612eaa565b9350506020612f3786828701612eaa565b9250506040612f4886828701612df5565b9150509250925092565b600081519050919050565b600082825260208201905092915050565b6000819050602082019050919050565b612f8781612dd4565b82525050565b6000612f9882612e37565b9050919050565b612fa881612f8d565b82525050565b612fb781612ce3565b82525050565b600082825260208201905092915050565b6000612fd982612d19565b612fe38185612fbd565b9350612ff3818560208601612d35565b612ffc81612d68565b840191505092915050565b600060c08301600083015161301f6000860182612f7e565b5060208301516130326020860182612f9f565b5060408301516130456040860182612f9f565b5060608301516130586060860182612f7e565b50608083015161306b6080860182612fae565b5060a083015184820360a08601526130838282612fce565b9150508091505092915050565b600061309c8383613007565b905092915050565b6000602082019050919050565b60006130bc82612f52565b6130c68185612f5d565b9350836020820285016130d885612f6e565b8060005b8581101561311457848403895281516130f58582613090565b9450613100836130a4565b925060208a019950506001810190506130dc565b50829750879550505050505092915050565b6000602082019050818103600083015261314081846130b1565b905092915050565b61315181612dd4565b82525050565b600060208201905061316c6000830184613148565b92915050565b60006020828403121561318857613187612c54565b5b600061319684828501612eaa565b91505092915050565b600060c0830160008301516131b76000860182612f7e565b5060208301516131ca6020860182612f9f565b5060408301516131dd6040860182612f9f565b5060608301516131f06060860182612f7e565b5060808301516132036080860182612fae565b5060a083015184820360a086015261321b8282612fce565b9150508091505092915050565b60006020820190508181036000830152613242818461319f565b905092915050565b61325381612ce3565b811461325e57600080fd5b50565b6000813590506132708161324a565b92915050565b6000806040838503121561328d5761328c612c54565b5b600061329b85828601612eaa565b92505060206132ac85828601613261565b9150509250929050565b600080fd5b600080fd5b7f4e487b7100000000000000000000000000000000000000000000000000000000600052604160045260246000fd5b6132f882612d68565b810181811067ffffffffffffffff82111715613317576133166132c0565b5b80604052505050565b600061332a612c4a565b905061333682826132ef565b919050565b600067ffffffffffffffff821115613356576133556132c0565b5b61335f82612d68565b9050602081019050919050565b82818337600083830152505050565b600061338e6133898461333b565b613320565b9050828152602081018484840111156133aa576133a96132bb565b5b6133b584828561336c565b509392505050565b600082601f8301126133d2576133d16132b6565b5b81356133e284826020860161337b565b91505092915050565b6000806000806080858703121561340557613404612c54565b5b600061341387828801612eaa565b945050602061342487828801612eaa565b935050604061343587828801612df5565b925050606085013567ffffffffffffffff81111561345657613455612c59565b5b613462878288016133bd565b91505092959194509250565b600067ffffffffffffffff821115613489576134886132c0565b5b61349282612d68565b9050602081019050919050565b60006134b26134ad8461346e565b613320565b9050828152602081018484840111156134ce576134cd6132bb565b5b6134d984828561336c565b509392505050565b600082601f8301126134f6576134f56132b6565b5b813561350684826020860161349f565b91505092915050565b60008060006060848603121561352857613527612c54565b5b600084013567ffffffffffffffff81111561354657613545612c59565b5b613552868287016134e1565b935050602061356386828701612df5565b925050604084013567ffffffffffffffff81111561358457613583612c59565b5b613590868287016134e1565b9150509250925092565b600080604083850312156135b1576135b0612c54565b5b60006135bf85828601612eaa565b92505060206135d085828601612eaa565b9150509250929050565b7f4e487b7100000000000000000000000000000000000000000000000000000000600052602260045260246000fd5b6000600282049050600182168061362157607f821691505b60208210811415613635576136346135da565b5b50919050565b7f4552433732313a20617070726f76616c20746f2063757272656e74206f776e6560008201527f7200000000000000000000000000000000000000000000000000000000000000602082015250565b6000613697602183612d24565b91506136a28261363b565b604082019050919050565b600060208201905081810360008301526136c68161368a565b9050919050565b7f4552433732313a20617070726f76652063616c6c6572206973206e6f7420746f60008201527f6b656e206f776e6572206f7220617070726f76656420666f7220616c6c000000602082015250565b6000613729603d83612d24565b9150613734826136cd565b604082019050919050565b600060208201905081810360008301526137588161371c565b9050919050565b7f4552433732313a2063616c6c6572206973206e6f7420746f6b656e206f776e6560008201527f72206f7220617070726f76656400000000000000000000000000000000000000602082015250565b60006137bb602d83612d24565b91506137c68261375f565b604082019050919050565b600060208201905081810360008301526137ea816137ae565b9050919050565b7f4e487b7100000000000000000000000000000000000000000000000000000000600052601160045260246000fd5b600061382b82612dd4565b915061383683612dd4565b9250827fffffffffffffffffffffffffffffffffffffffffffffffffffffffffffffffff0382111561386b5761386a6137f1565b5b828201905092915050565b600061388182612dd4565b91507fffffffffffffffffffffffffffffffffffffffffffffffffffffffffffffffff8214156138b4576138b36137f1565b5b600182019050919050565b7f4e487b7100000000000000000000000000000000000000000000000000000000600052603260045260246000fd5b7f4552433732313a20696e76616c696420746f6b656e2049440000000000000000600082015250565b6000613924601883612d24565b915061392f826138ee565b602082019050919050565b6000602082019050818103600083015261395381613917565b9050919050565b7f4552433732313a2061646472657373207a65726f206973206e6f74206120766160008201527f6c6964206f776e65720000000000000000000000000000000000000000000000602082015250565b60006139b6602983612d24565b91506139c18261395a565b604082019050919050565b600060208201905081810360008301526139e5816139a9565b9050919050565b7f506c65617365207375626d6974207468652061736b696e67207072696365206660008201527f6f7220746865204e465420696e206f7264657220746f20707572636861736500602082015250565b6000613a48603f83612d24565b9150613a53826139ec565b604082019050919050565b60006020820190508181036000830152613a7781613a3b565b9050919050565b7f53656e6420656e6f75676820657468657220746f206c69737400000000000000600082015250565b6000613ab4601983612d24565b9150613abf82613a7e565b602082019050919050565b60006020820190508181036000830152613ae381613aa7565b9050919050565b7f4d616b6520737572652074686520707269636520696e732774206e656761746960008201527f7665000000000000000000000000000000000000000000000000000000000000602082015250565b6000613b46602283612d24565b9150613b5182613aea565b604082019050919050565b60006020820190508181036000830152613b7581613b39565b9050919050565b600081905092915050565b6000613b9282612d19565b613b9c8185613b7c565b9350613bac818560208601612d35565b80840191505092915050565b6000613bc48285613b87565b9150613bd08284613b87565b91508190509392505050565b7f4552433732313a207472616e736665722066726f6d20696e636f72726563742060008201527f6f776e6572000000000000000000000000000000000000000000000000000000602082015250565b6000613c38602583612d24565b9150613c4382613bdc565b604082019050919050565b60006020820190508181036000830152613c6781613c2b565b9050919050565b7f4552433732313a207472616e7366657220746f20746865207a65726f2061646460008201527f7265737300000000000000000000000000000000000000000000000000000000602082015250565b6000613cca602483612d24565b9150613cd582613c6e565b604082019050919050565b60006020820190508181036000830152613cf981613cbd565b9050919050565b7f4552433732313a20617070726f766520746f2063616c6c657200000000000000600082015250565b6000613d36601983612d24565b9150613d4182613d00565b602082019050919050565b60006020820190508181036000830152613d6581613d29565b9050919050565b7f4552433732313a207472616e7366657220746f206e6f6e20455243373231526560008201527f63656976657220696d706c656d656e7465720000000000000000000000000000602082015250565b6000613dc8603283612d24565b9150613dd382613d6c565b604082019050919050565b60006020820190508181036000830152613df781613dbb565b9050919050565b7f45524337323155524953746f726167653a2055524920736574206f66206e6f6e60008201527f6578697374656e7420746f6b656e000000000000000000000000000000000000602082015250565b6000613e5a602e83612d24565b9150613e6582613dfe565b604082019050919050565b60006020820190508181036000830152613e8981613e4d565b9050919050565b6000613e9b82612dd4565b9150613ea683612dd4565b925082821015613eb957613eb86137f1565b5b828203905092915050565b600081519050919050565b600082825260208201905092915050565b6000613eeb82613ec4565b613ef58185613ecf565b9350613f05818560208601612d35565b613f0e81612d68565b840191505092915050565b6000608082019050613f2e6000830187612e69565b613f3b6020830186612e69565b613f486040830185613148565b8181036060830152613f5a8184613ee0565b905095945050505050565b600081519050613f7481612c8a565b92915050565b600060208284031215613f9057613f8f612c54565b5b6000613f9e84828501613f65565b91505092915050565b7f4e487b7100000000000000000000000000000000000000000000000000000000600052601260045260246000fd5b7f4552433732313a206d696e7420746f20746865207a65726f2061646472657373600082015250565b600061400c602083612d24565b915061401782613fd6565b602082019050919050565b6000602082019050818103600083015261403b81613fff565b9050919050565b7f4552433732313a20746f6b656e20616c7265616479206d696e74656400000000600082015250565b6000614078601c83612d24565b915061408382614042565b602082019050919050565b600060208201905081810360008301526140a78161406b565b905091905056fea2646970667358221220188c7d3521965ef038e8b8db366563d99e024b1f2387f9321607605dcb55acee64736f6c63430008090033",
  "linkReferences": {},
  "deployedLinkReferences": {}
}