{
  "_format": "hh-sol-artifact-1",
  "contractName": "REstate",
  "sourceName": "contracts/REstate.sol",
  "abi": [
    {
      "inputs": [],
      "stateMutability": "nonpayable",
      "type": "constructor"
    },
    {
      "anonymous": false,
      "inputs": [
        {
          "indexed": true,
          "internalType": "address",
          "name": "owner",
          "type": "address"
        },
        {
          "indexed": true,
          "internalType": "address",
          "name": "approved",
          "type": "address"
        },
        {
          "indexed": true,
          "internalType": "uint256",
          "name": "tokenId",
          "type": "uint256"
        }
      ],
      "name": "Approval",
      "type": "event"
    },
    {
      "anonymous": false,
      "inputs": [
        {
          "indexed": true,
          "internalType": "address",
          "name": "owner",
          "type": "address"
        },
        {
          "indexed": true,
          "internalType": "address",
          "name": "operator",
          "type": "address"
        },
        {
          "indexed": false,
          "internalType": "bool",
          "name": "approved",
          "type": "bool"
        }
      ],
      "name": "ApprovalForAll",
      "type": "event"
    },
    {
      "anonymous": false,
      "inputs": [
        {
          "indexed": true,
          "internalType": "address",
          "name": "from",
          "type": "address"
        },
        {
          "indexed": true,
          "internalType": "address",
          "name": "to",
          "type": "address"
        },
        {
          "indexed": true,
          "internalType": "uint256",
          "name": "tokenId",
          "type": "uint256"
        }
      ],
      "name": "Transfer",
      "type": "event"
    },
    {
      "inputs": [
        {
          "internalType": "address",
          "name": "to",
          "type": "address"
        },
        {
          "internalType": "uint256",
          "name": "tokenId",
          "type": "uint256"
        }
      ],
      "name": "approve",
      "outputs": [],
      "stateMutability": "nonpayable",
      "type": "function"
    },
    {
      "inputs": [
        {
          "internalType": "address",
          "name": "owner",
          "type": "address"
        }
      ],
      "name": "balanceOf",
      "outputs": [
        {
          "internalType": "uint256",
          "name": "",
          "type": "uint256"
        }
      ],
      "stateMutability": "view",
      "type": "function"
    },
    {
      "inputs": [
        {
          "internalType": "string",
          "name": "tokenURI",
          "type": "string"
        },
        {
          "internalType": "uint256",
          "name": "price",
          "type": "uint256"
        },
        {
          "internalType": "string",
          "name": "desc",
          "type": "string"
        },
        {
          "internalType": "string",
          "name": "_name",
          "type": "string"
        }
      ],
      "name": "createToken",
      "outputs": [
        {
          "internalType": "uint256",
          "name": "",
          "type": "uint256"
        }
      ],
      "stateMutability": "payable",
      "type": "function"
    },
    {
      "inputs": [
        {
          "internalType": "uint256",
          "name": "tokenId",
          "type": "uint256"
        }
      ],
      "name": "executeSale",
      "outputs": [],
      "stateMutability": "payable",
      "type": "function"
    },
    {
      "inputs": [],
      "name": "getAllPropertys",
      "outputs": [
        {
          "components": [
            {
              "internalType": "uint256",
              "name": "tokenId",
              "type": "uint256"
            },
            {
              "internalType": "address payable",
              "name": "owner",
              "type": "address"
            },
            {
              "internalType": "address payable",
              "name": "seller",
              "type": "address"
            },
            {
              "internalType": "uint256",
              "name": "price",
              "type": "uint256"
            },
            {
              "internalType": "bool",
              "name": "currentlyListed",
              "type": "bool"
            },
            {
              "internalType": "string",
              "name": "name",
              "type": "string"
            },
            {
              "internalType": "string",
              "name": "description",
              "type": "string"
            }
          ],
          "internalType": "struct REstate.ListedProperty[]",
          "name": "",
          "type": "tuple[]"
        }
      ],
      "stateMutability": "view",
      "type": "function"
    },
    {
      "inputs": [
        {
          "internalType": "uint256",
          "name": "tokenId",
          "type": "uint256"
        }
      ],
      "name": "getApproved",
      "outputs": [
        {
          "internalType": "address",
          "name": "",
          "type": "address"
        }
      ],
      "stateMutability": "view",
      "type": "function"
    },
    {
      "inputs": [],
      "name": "getCurrentTokenId",
      "outputs": [
        {
          "internalType": "uint256",
          "name": "",
          "type": "uint256"
        }
      ],
      "stateMutability": "view",
      "type": "function"
    },
    {
      "inputs": [],
      "name": "getLatestIdToListedProperty",
      "outputs": [
        {
          "components": [
            {
              "internalType": "uint256",
              "name": "tokenId",
              "type": "uint256"
            },
            {
              "internalType": "address payable",
              "name": "owner",
              "type": "address"
            },
            {
              "internalType": "address payable",
              "name": "seller",
              "type": "address"
            },
            {
              "internalType": "uint256",
              "name": "price",
              "type": "uint256"
            },
            {
              "internalType": "bool",
              "name": "currentlyListed",
              "type": "bool"
            },
            {
              "internalType": "string",
              "name": "name",
              "type": "string"
            },
            {
              "internalType": "string",
              "name": "description",
              "type": "string"
            }
          ],
          "internalType": "struct REstate.ListedProperty",
          "name": "",
          "type": "tuple"
        }
      ],
      "stateMutability": "view",
      "type": "function"
    },
    {
      "inputs": [],
      "name": "getListPrice",
      "outputs": [
        {
          "internalType": "uint256",
          "name": "",
          "type": "uint256"
        }
      ],
      "stateMutability": "view",
      "type": "function"
    },
    {
      "inputs": [
        {
          "internalType": "uint256",
          "name": "tokenId",
          "type": "uint256"
        }
      ],
      "name": "getListedForTokenId",
      "outputs": [
        {
          "components": [
            {
              "internalType": "uint256",
              "name": "tokenId",
              "type": "uint256"
            },
            {
              "internalType": "address payable",
              "name": "owner",
              "type": "address"
            },
            {
              "internalType": "address payable",
              "name": "seller",
              "type": "address"
            },
            {
              "internalType": "uint256",
              "name": "price",
              "type": "uint256"
            },
            {
              "internalType": "bool",
              "name": "currentlyListed",
              "type": "bool"
            },
            {
              "internalType": "string",
              "name": "name",
              "type": "string"
            },
            {
              "internalType": "string",
              "name": "description",
              "type": "string"
            }
          ],
          "internalType": "struct REstate.ListedProperty",
          "name": "",
          "type": "tuple"
        }
      ],
      "stateMutability": "view",
      "type": "function"
    },
    {
      "inputs": [],
      "name": "getMyPropertys",
      "outputs": [
        {
          "components": [
            {
              "internalType": "uint256",
              "name": "tokenId",
              "type": "uint256"
            },
            {
              "internalType": "address payable",
              "name": "owner",
              "type": "address"
            },
            {
              "internalType": "address payable",
              "name": "seller",
              "type": "address"
            },
            {
              "internalType": "uint256",
              "name": "price",
              "type": "uint256"
            },
            {
              "internalType": "bool",
              "name": "currentlyListed",
              "type": "bool"
            },
            {
              "internalType": "string",
              "name": "name",
              "type": "string"
            },
            {
              "internalType": "string",
              "name": "description",
              "type": "string"
            }
          ],
          "internalType": "struct REstate.ListedProperty[]",
          "name": "",
          "type": "tuple[]"
        }
      ],
      "stateMutability": "view",
      "type": "function"
    },
    {
      "inputs": [
        {
          "internalType": "address",
          "name": "owner",
          "type": "address"
        },
        {
          "internalType": "address",
          "name": "operator",
          "type": "address"
        }
      ],
      "name": "isApprovedForAll",
      "outputs": [
        {
          "internalType": "bool",
          "name": "",
          "type": "bool"
        }
      ],
      "stateMutability": "view",
      "type": "function"
    },
    {
      "inputs": [],
      "name": "name",
      "outputs": [
        {
          "internalType": "string",
          "name": "",
          "type": "string"
        }
      ],
      "stateMutability": "view",
      "type": "function"
    },
    {
      "inputs": [
        {
          "internalType": "uint256",
          "name": "tokenId",
          "type": "uint256"
        }
      ],
      "name": "ownerOf",
      "outputs": [
        {
          "internalType": "address",
          "name": "",
          "type": "address"
        }
      ],
      "stateMutability": "view",
      "type": "function"
    },
    {
      "inputs": [
        {
          "internalType": "address",
          "name": "from",
          "type": "address"
        },
        {
          "internalType": "address",
          "name": "to",
          "type": "address"
        },
        {
          "internalType": "uint256",
          "name": "tokenId",
          "type": "uint256"
        }
      ],
      "name": "safeTransferFrom",
      "outputs": [],
      "stateMutability": "nonpayable",
      "type": "function"
    },
    {
      "inputs": [
        {
          "internalType": "address",
          "name": "from",
          "type": "address"
        },
        {
          "internalType": "address",
          "name": "to",
          "type": "address"
        },
        {
          "internalType": "uint256",
          "name": "tokenId",
          "type": "uint256"
        },
        {
          "internalType": "bytes",
          "name": "data",
          "type": "bytes"
        }
      ],
      "name": "safeTransferFrom",
      "outputs": [],
      "stateMutability": "nonpayable",
      "type": "function"
    },
    {
      "inputs": [
        {
          "internalType": "address",
          "name": "operator",
          "type": "address"
        },
        {
          "internalType": "bool",
          "name": "approved",
          "type": "bool"
        }
      ],
      "name": "setApprovalForAll",
      "outputs": [],
      "stateMutability": "nonpayable",
      "type": "function"
    },
    {
      "inputs": [
        {
          "internalType": "bytes4",
          "name": "interfaceId",
          "type": "bytes4"
        }
      ],
      "name": "supportsInterface",
      "outputs": [
        {
          "internalType": "bool",
          "name": "",
          "type": "bool"
        }
      ],
      "stateMutability": "view",
      "type": "function"
    },
    {
      "inputs": [],
      "name": "symbol",
      "outputs": [
        {
          "internalType": "string",
          "name": "",
          "type": "string"
        }
      ],
      "stateMutability": "view",
      "type": "function"
    },
    {
      "inputs": [
        {
          "internalType": "uint256",
          "name": "tokenId",
          "type": "uint256"
        }
      ],
      "name": "tokenURI",
      "outputs": [
        {
          "internalType": "string",
          "name": "",
          "type": "string"
        }
      ],
      "stateMutability": "view",
      "type": "function"
    },
    {
      "inputs": [
        {
          "internalType": "address",
          "name": "from",
          "type": "address"
        },
        {
          "internalType": "address",
          "name": "to",
          "type": "address"
        },
        {
          "internalType": "uint256",
          "name": "tokenId",
          "type": "uint256"
        }
      ],
      "name": "transferFrom",
      "outputs": [],
      "stateMutability": "nonpayable",
      "type": "function"
    },
    {
      "inputs": [
        {
          "internalType": "uint256",
          "name": "_listPrice",
          "type": "uint256"
        }
      ],
      "name": "updateListPrice",
      "outputs": [],
      "stateMutability": "payable",
      "type": "function"
    }
  ],
  "bytecode": "0x608060405264174876e800600a553480156200001a57600080fd5b506040518060400160405280600881526020017f522d4573746174650000000000000000000000000000000000000000000000008152506040518060400160405280600381526020017f525354000000000000000000000000000000000000000000000000000000000081525081600090805190602001906200009f92919062000102565b508060019080519060200190620000b892919062000102565b50505033600760006101000a81548173ffffffffffffffffffffffffffffffffffffffff021916908373ffffffffffffffffffffffffffffffffffffffff16021790555062000217565b8280546200011090620001e1565b90600052602060002090601f01602090048101928262000134576000855562000180565b82601f106200014f57805160ff191683800117855562000180565b8280016001018555821562000180579182015b828111156200017f57825182559160200191906001019062000162565b5b5090506200018f919062000193565b5090565b5b80821115620001ae57600081600090555060010162000194565b5090565b7f4e487b7100000000000000000000000000000000000000000000000000000000600052602260045260246000fd5b60006002820490506001821680620001fa57607f821691505b60208210811415620002115762000210620001b2565b5b50919050565b6143be80620002276000396000f3fe6080604052600436106101355760003560e01c806370a08231116100ab578063a22cb4651161006f578063a22cb4651461042f578063b88d4fde14610458578063c322579c14610481578063c87b56dd1461049d578063e7c3a03e146104da578063e985e9c51461050a57610135565b806370a082311461034357806395d89b4114610380578063973b3e06146103ab57806398c3df16146103d65780639b1225c41461041357610135565b806336bdda45116100fd57806336bdda451461023157806342842e0e1461025c5780634fa42ce11461028557806356189236146102b05780636352211e146102db57806368f1945f1461031857610135565b806301ffc9a71461013a57806306fdde0314610177578063081812fc146101a2578063095ea7b3146101df57806323b872dd14610208575b600080fd5b34801561014657600080fd5b50610161600480360381019061015c9190612f2c565b610547565b60405161016e9190612f74565b60405180910390f35b34801561018357600080fd5b5061018c610629565b6040516101999190613028565b60405180910390f35b3480156101ae57600080fd5b506101c960048036038101906101c49190613080565b6106bb565b6040516101d691906130ee565b60405180910390f35b3480156101eb57600080fd5b5061020660048036038101906102019190613135565b610701565b005b34801561021457600080fd5b5061022f600480360381019061022a9190613175565b610819565b005b34801561023d57600080fd5b50610246610879565b60405161025391906133b6565b60405180910390f35b34801561026857600080fd5b50610283600480360381019061027e9190613175565b610d7b565b005b34801561029157600080fd5b5061029a610d9b565b6040516102a791906133b6565b60405180910390f35b3480156102bc57600080fd5b506102c561108e565b6040516102d291906133e7565b60405180910390f35b3480156102e757600080fd5b5061030260048036038101906102fd9190613080565b61109f565b60405161030f91906130ee565b60405180910390f35b34801561032457600080fd5b5061032d611126565b60405161033a91906133e7565b60405180910390f35b34801561034f57600080fd5b5061036a60048036038101906103659190613402565b611130565b60405161037791906133e7565b60405180910390f35b34801561038c57600080fd5b506103956111e8565b6040516103a29190613028565b60405180910390f35b3480156103b757600080fd5b506103c061127a565b6040516103cd91906134d2565b60405180910390f35b3480156103e257600080fd5b506103fd60048036038101906103f89190613080565b6114b3565b60405161040a91906134d2565b60405180910390f35b61042d60048036038101906104289190613080565b6116df565b005b34801561043b57600080fd5b5061045660048036038101906104519190613520565b6118d1565b005b34801561046457600080fd5b5061047f600480360381019061047a9190613695565b6118e7565b005b61049b60048036038101906104969190613080565b611949565b005b3480156104a957600080fd5b506104c460048036038101906104bf9190613080565b6119ad565b6040516104d19190613028565b60405180910390f35b6104f460048036038101906104ef91906137b9565b611ac0565b60405161050191906133e7565b60405180910390f35b34801561051657600080fd5b50610531600480360381019061052c9190613874565b611b8e565b60405161053e9190612f74565b60405180910390f35b60007f80ac58cd000000000000000000000000000000000000000000000000000000007bffffffffffffffffffffffffffffffffffffffffffffffffffffffff1916827bffffffffffffffffffffffffffffffffffffffffffffffffffffffff1916148061061257507f5b5e139f000000000000000000000000000000000000000000000000000000007bffffffffffffffffffffffffffffffffffffffffffffffffffffffff1916827bffffffffffffffffffffffffffffffffffffffffffffffffffffffff1916145b80610622575061062182611c22565b5b9050919050565b606060008054610638906138e3565b80601f0160208091040260200160405190810160405280929190818152602001828054610664906138e3565b80156106b15780601f10610686576101008083540402835291602001916106b1565b820191906000526020600020905b81548152906001019060200180831161069457829003601f168201915b5050505050905090565b60006106c682611c8c565b6004600083815260200190815260200160002060009054906101000a900473ffffffffffffffffffffffffffffffffffffffff169050919050565b600061070c8261109f565b90508073ffffffffffffffffffffffffffffffffffffffff168373ffffffffffffffffffffffffffffffffffffffff16141561077d576040517f08c379a000000000000000000000000000000000000000000000000000000000815260040161077490613987565b60405180910390fd5b8073ffffffffffffffffffffffffffffffffffffffff1661079c611cd7565b73ffffffffffffffffffffffffffffffffffffffff1614806107cb57506107ca816107c5611cd7565b611b8e565b5b61080a576040517f08c379a000000000000000000000000000000000000000000000000000000000815260040161080190613a19565b60405180910390fd5b6108148383611cdf565b505050565b61082a610824611cd7565b82611d98565b610869576040517f08c379a000000000000000000000000000000000000000000000000000000000815260040161086090613aab565b60405180910390fd5b610874838383611e2d565b505050565b606060006108876008612127565b905060008060005b838110156109a8573373ffffffffffffffffffffffffffffffffffffffff16600b60006001846108bf9190613afa565b815260200190815260200160002060010160009054906101000a900473ffffffffffffffffffffffffffffffffffffffff1673ffffffffffffffffffffffffffffffffffffffff16148061098057503373ffffffffffffffffffffffffffffffffffffffff16600b60006001846109369190613afa565b815260200190815260200160002060020160009054906101000a900473ffffffffffffffffffffffffffffffffffffffff1673ffffffffffffffffffffffffffffffffffffffff16145b15610995576001836109929190613afa565b92505b80806109a090613b50565b91505061088f565b5060008267ffffffffffffffff8111156109c5576109c461356a565b5b6040519080825280602002602001820160405280156109fe57816020015b6109eb612db2565b8152602001906001900390816109e35790505b50905060005b84811015610d70573373ffffffffffffffffffffffffffffffffffffffff16600b6000600184610a349190613afa565b815260200190815260200160002060010160009054906101000a900473ffffffffffffffffffffffffffffffffffffffff1673ffffffffffffffffffffffffffffffffffffffff161480610af557503373ffffffffffffffffffffffffffffffffffffffff16600b6000600184610aab9190613afa565b815260200190815260200160002060020160009054906101000a900473ffffffffffffffffffffffffffffffffffffffff1673ffffffffffffffffffffffffffffffffffffffff16145b15610d5d576000600182610b099190613afa565b90506000600b60008381526020019081526020016000209050806040518060e0016040529081600082015481526020016001820160009054906101000a900473ffffffffffffffffffffffffffffffffffffffff1673ffffffffffffffffffffffffffffffffffffffff1673ffffffffffffffffffffffffffffffffffffffff1681526020016002820160009054906101000a900473ffffffffffffffffffffffffffffffffffffffff1673ffffffffffffffffffffffffffffffffffffffff1673ffffffffffffffffffffffffffffffffffffffff168152602001600382015481526020016004820160009054906101000a900460ff16151515158152602001600582018054610c19906138e3565b80601f0160208091040260200160405190810160405280929190818152602001828054610c45906138e3565b8015610c925780601f10610c6757610100808354040283529160200191610c92565b820191906000526020600020905b815481529060010190602001808311610c7557829003601f168201915b50505050508152602001600682018054610cab906138e3565b80601f0160208091040260200160405190810160405280929190818152602001828054610cd7906138e3565b8015610d245780601f10610cf957610100808354040283529160200191610d24565b820191906000526020600020905b815481529060010190602001808311610d0757829003601f168201915b505050505081525050848681518110610d4057610d3f613b99565b5b6020026020010181905250600185610d589190613afa565b945050505b8080610d6890613b50565b915050610a04565b508094505050505090565b610d96838383604051806020016040528060008152506118e7565b505050565b60606000610da96008612127565b905060008167ffffffffffffffff811115610dc757610dc661356a565b5b604051908082528060200260200182016040528015610e0057816020015b610ded612db2565b815260200190600190039081610de55790505b5090506000805b83811015611084576000600182610e1e9190613afa565b90506000600b60008381526020019081526020016000209050806040518060e0016040529081600082015481526020016001820160009054906101000a900473ffffffffffffffffffffffffffffffffffffffff1673ffffffffffffffffffffffffffffffffffffffff1673ffffffffffffffffffffffffffffffffffffffff1681526020016002820160009054906101000a900473ffffffffffffffffffffffffffffffffffffffff1673ffffffffffffffffffffffffffffffffffffffff1673ffffffffffffffffffffffffffffffffffffffff168152602001600382015481526020016004820160009054906101000a900460ff16151515158152602001600582018054610f2e906138e3565b80601f0160208091040260200160405190810160405280929190818152602001828054610f5a906138e3565b8015610fa75780601f10610f7c57610100808354040283529160200191610fa7565b820191906000526020600020905b815481529060010190602001808311610f8a57829003601f168201915b50505050508152602001600682018054610fc0906138e3565b80601f0160208091040260200160405190810160405280929190818152602001828054610fec906138e3565b80156110395780601f1061100e57610100808354040283529160200191611039565b820191906000526020600020905b81548152906001019060200180831161101c57829003601f168201915b50505050508152505085858151811061105557611054613b99565b5b602002602001018190525060018461106d9190613afa565b93505050808061107c90613b50565b915050610e07565b5081935050505090565b600061109a6008612127565b905090565b6000806110ab83612135565b9050600073ffffffffffffffffffffffffffffffffffffffff168173ffffffffffffffffffffffffffffffffffffffff16141561111d576040517f08c379a000000000000000000000000000000000000000000000000000000000815260040161111490613c14565b60405180910390fd5b80915050919050565b6000600a54905090565b60008073ffffffffffffffffffffffffffffffffffffffff168273ffffffffffffffffffffffffffffffffffffffff1614156111a1576040517f08c379a000000000000000000000000000000000000000000000000000000000815260040161119890613ca6565b60405180910390fd5b600360008373ffffffffffffffffffffffffffffffffffffffff1673ffffffffffffffffffffffffffffffffffffffff168152602001908152602001600020549050919050565b6060600180546111f7906138e3565b80601f0160208091040260200160405190810160405280929190818152602001828054611223906138e3565b80156112705780601f1061124557610100808354040283529160200191611270565b820191906000526020600020905b81548152906001019060200180831161125357829003601f168201915b5050505050905090565b611282612db2565b600061128e6008612127565b9050600b60008281526020019081526020016000206040518060e0016040529081600082015481526020016001820160009054906101000a900473ffffffffffffffffffffffffffffffffffffffff1673ffffffffffffffffffffffffffffffffffffffff1673ffffffffffffffffffffffffffffffffffffffff1681526020016002820160009054906101000a900473ffffffffffffffffffffffffffffffffffffffff1673ffffffffffffffffffffffffffffffffffffffff1673ffffffffffffffffffffffffffffffffffffffff168152602001600382015481526020016004820160009054906101000a900460ff16151515158152602001600582018054611399906138e3565b80601f01602080910402602001604051908101604052809291908181526020018280546113c5906138e3565b80156114125780601f106113e757610100808354040283529160200191611412565b820191906000526020600020905b8154815290600101906020018083116113f557829003601f168201915b5050505050815260200160068201805461142b906138e3565b80601f0160208091040260200160405190810160405280929190818152602001828054611457906138e3565b80156114a45780601f10611479576101008083540402835291602001916114a4565b820191906000526020600020905b81548152906001019060200180831161148757829003601f168201915b50505050508152505091505090565b6114bb612db2565b600b60008381526020019081526020016000206040518060e0016040529081600082015481526020016001820160009054906101000a900473ffffffffffffffffffffffffffffffffffffffff1673ffffffffffffffffffffffffffffffffffffffff1673ffffffffffffffffffffffffffffffffffffffff1681526020016002820160009054906101000a900473ffffffffffffffffffffffffffffffffffffffff1673ffffffffffffffffffffffffffffffffffffffff1673ffffffffffffffffffffffffffffffffffffffff168152602001600382015481526020016004820160009054906101000a900460ff161515151581526020016005820180546115c4906138e3565b80601f01602080910402602001604051908101604052809291908181526020018280546115f0906138e3565b801561163d5780601f106116125761010080835404028352916020019161163d565b820191906000526020600020905b81548152906001019060200180831161162057829003601f168201915b50505050508152602001600682018054611656906138e3565b80601f0160208091040260200160405190810160405280929190818152602001828054611682906138e3565b80156116cf5780601f106116a4576101008083540402835291602001916116cf565b820191906000526020600020905b8154815290600101906020018083116116b257829003601f168201915b5050505050815250509050919050565b6000600b600083815260200190815260200160002060030154905080341461173c576040517f08c379a000000000000000000000000000000000000000000000000000000000815260040161173390613d38565b60405180910390fd5b6000600b600084815260200190815260200160002060020160009054906101000a900473ffffffffffffffffffffffffffffffffffffffff1690506001600b600085815260200190815260200160002060040160006101000a81548160ff02191690831515021790555033600b600085815260200190815260200160002060020160006101000a81548173ffffffffffffffffffffffffffffffffffffffff021916908373ffffffffffffffffffffffffffffffffffffffff1602179055506118056009612172565b611810303385611e2d565b61181a3084610701565b600760009054906101000a900473ffffffffffffffffffffffffffffffffffffffff1673ffffffffffffffffffffffffffffffffffffffff166108fc600a549081150290604051600060405180830381858888f19350505050158015611884573d6000803e3d6000fd5b508073ffffffffffffffffffffffffffffffffffffffff166108fc349081150290604051600060405180830381858888f193505050501580156118cb573d6000803e3d6000fd5b50505050565b6118e36118dc611cd7565b8383612188565b5050565b6118f86118f2611cd7565b83611d98565b611937576040517f08c379a000000000000000000000000000000000000000000000000000000000815260040161192e90613aab565b60405180910390fd5b611943848484846122f5565b50505050565b600760009054906101000a900473ffffffffffffffffffffffffffffffffffffffff1673ffffffffffffffffffffffffffffffffffffffff163373ffffffffffffffffffffffffffffffffffffffff16146119a357600080fd5b80600a8190555050565b60606119b882611c8c565b60006006600084815260200190815260200160002080546119d8906138e3565b80601f0160208091040260200160405190810160405280929190818152602001828054611a04906138e3565b8015611a515780601f10611a2657610100808354040283529160200191611a51565b820191906000526020600020905b815481529060010190602001808311611a3457829003601f168201915b505050505090506000611a62612351565b9050600081511415611a78578192505050611abb565b600082511115611aad578082604051602001611a95929190613d94565b60405160208183030381529060405292505050611abb565b611ab684612368565b925050505b919050565b6000600a54341015611b07576040517f08c379a0000000000000000000000000000000000000000000000000000000008152600401611afe90613e04565b60405180910390fd5b60008411611b4a576040517f08c379a0000000000000000000000000000000000000000000000000000000008152600401611b4190613e96565b60405180910390fd5b611b546008612172565b6000611b606008612127565b9050611b6c33826123d0565b611b7681876123ee565b611b8281868587612462565b80915050949350505050565b6000600560008473ffffffffffffffffffffffffffffffffffffffff1673ffffffffffffffffffffffffffffffffffffffff16815260200190815260200160002060008373ffffffffffffffffffffffffffffffffffffffff1673ffffffffffffffffffffffffffffffffffffffff16815260200190815260200160002060009054906101000a900460ff16905092915050565b60007f01ffc9a7000000000000000000000000000000000000000000000000000000007bffffffffffffffffffffffffffffffffffffffffffffffffffffffff1916827bffffffffffffffffffffffffffffffffffffffffffffffffffffffff1916149050919050565b611c95816125e7565b611cd4576040517f08c379a0000000000000000000000000000000000000000000000000000000008152600401611ccb90613c14565b60405180910390fd5b50565b600033905090565b816004600083815260200190815260200160002060006101000a81548173ffffffffffffffffffffffffffffffffffffffff021916908373ffffffffffffffffffffffffffffffffffffffff160217905550808273ffffffffffffffffffffffffffffffffffffffff16611d528361109f565b73ffffffffffffffffffffffffffffffffffffffff167f8c5be1e5ebec7d5bd14f71427d1e84f3dd0314c0f7b2291e5b200ac8c7c3b92560405160405180910390a45050565b600080611da48361109f565b90508073ffffffffffffffffffffffffffffffffffffffff168473ffffffffffffffffffffffffffffffffffffffff161480611de65750611de58185611b8e565b5b80611e2457508373ffffffffffffffffffffffffffffffffffffffff16611e0c846106bb565b73ffffffffffffffffffffffffffffffffffffffff16145b91505092915050565b8273ffffffffffffffffffffffffffffffffffffffff16611e4d8261109f565b73ffffffffffffffffffffffffffffffffffffffff1614611ea3576040517f08c379a0000000000000000000000000000000000000000000000000000000008152600401611e9a90613f28565b60405180910390fd5b600073ffffffffffffffffffffffffffffffffffffffff168273ffffffffffffffffffffffffffffffffffffffff161415611f13576040517f08c379a0000000000000000000000000000000000000000000000000000000008152600401611f0a90613fba565b60405180910390fd5b611f208383836001612628565b8273ffffffffffffffffffffffffffffffffffffffff16611f408261109f565b73ffffffffffffffffffffffffffffffffffffffff1614611f96576040517f08c379a0000000000000000000000000000000000000000000000000000000008152600401611f8d90613f28565b60405180910390fd5b6004600082815260200190815260200160002060006101000a81549073ffffffffffffffffffffffffffffffffffffffff02191690556001600360008573ffffffffffffffffffffffffffffffffffffffff1673ffffffffffffffffffffffffffffffffffffffff168152602001908152602001600020600082825403925050819055506001600360008473ffffffffffffffffffffffffffffffffffffffff1673ffffffffffffffffffffffffffffffffffffffff16815260200190815260200160002060008282540192505081905550816002600083815260200190815260200160002060006101000a81548173ffffffffffffffffffffffffffffffffffffffff021916908373ffffffffffffffffffffffffffffffffffffffff160217905550808273ffffffffffffffffffffffffffffffffffffffff168473ffffffffffffffffffffffffffffffffffffffff167fddf252ad1be2c89b69c2b068fc378daa952ba7f163c4a11628f55a4df523b3ef60405160405180910390a4612122838383600161274e565b505050565b600081600001549050919050565b60006002600083815260200190815260200160002060009054906101000a900473ffffffffffffffffffffffffffffffffffffffff169050919050565b6001816000016000828254019250508190555050565b8173ffffffffffffffffffffffffffffffffffffffff168373ffffffffffffffffffffffffffffffffffffffff1614156121f7576040517f08c379a00000000000000000000000000000000000000000000000000000000081526004016121ee90614026565b60405180910390fd5b80600560008573ffffffffffffffffffffffffffffffffffffffff1673ffffffffffffffffffffffffffffffffffffffff16815260200190815260200160002060008473ffffffffffffffffffffffffffffffffffffffff1673ffffffffffffffffffffffffffffffffffffffff16815260200190815260200160002060006101000a81548160ff0219169083151502179055508173ffffffffffffffffffffffffffffffffffffffff168373ffffffffffffffffffffffffffffffffffffffff167f17307eab39ab6107e8899845ad3d59bd9653f200f220920489ca2b5937696c31836040516122e89190612f74565b60405180910390a3505050565b612300848484611e2d565b61230c84848484612754565b61234b576040517f08c379a0000000000000000000000000000000000000000000000000000000008152600401612342906140b8565b60405180910390fd5b50505050565b606060405180602001604052806000815250905090565b606061237382611c8c565b600061237d612351565b9050600081511161239d57604051806020016040528060008152506123c8565b806123a7846128eb565b6040516020016123b8929190613d94565b6040516020818303038152906040525b915050919050565b6123ea8282604051806020016040528060008152506129c3565b5050565b6123f7826125e7565b612436576040517f08c379a000000000000000000000000000000000000000000000000000000000815260040161242d9061414a565b60405180910390fd5b8060066000848152602001908152602001600020908051906020019061245d929190612e1d565b505050565b6040518060e001604052808581526020013073ffffffffffffffffffffffffffffffffffffffff1681526020013373ffffffffffffffffffffffffffffffffffffffff16815260200184815260200160011515815260200183815260200182815250600b60008681526020019081526020016000206000820151816000015560208201518160010160006101000a81548173ffffffffffffffffffffffffffffffffffffffff021916908373ffffffffffffffffffffffffffffffffffffffff16021790555060408201518160020160006101000a81548173ffffffffffffffffffffffffffffffffffffffff021916908373ffffffffffffffffffffffffffffffffffffffff1602179055506060820151816003015560808201518160040160006101000a81548160ff02191690831515021790555060a08201518160050190805190602001906125b5929190612e1d565b5060c08201518160060190805190602001906125d2929190612e1d565b509050506125e1333086611e2d565b50505050565b60008073ffffffffffffffffffffffffffffffffffffffff1661260983612135565b73ffffffffffffffffffffffffffffffffffffffff1614159050919050565b600181111561274857600073ffffffffffffffffffffffffffffffffffffffff168473ffffffffffffffffffffffffffffffffffffffff16146126bc5780600360008673ffffffffffffffffffffffffffffffffffffffff1673ffffffffffffffffffffffffffffffffffffffff16815260200190815260200160002060008282546126b4919061416a565b925050819055505b600073ffffffffffffffffffffffffffffffffffffffff168373ffffffffffffffffffffffffffffffffffffffff16146127475780600360008573ffffffffffffffffffffffffffffffffffffffff1673ffffffffffffffffffffffffffffffffffffffff168152602001908152602001600020600082825461273f9190613afa565b925050819055505b5b50505050565b50505050565b60006127758473ffffffffffffffffffffffffffffffffffffffff16612a1e565b156128de578373ffffffffffffffffffffffffffffffffffffffff1663150b7a0261279e611cd7565b8786866040518563ffffffff1660e01b81526004016127c094939291906141f3565b602060405180830381600087803b1580156127da57600080fd5b505af192505050801561280b57506040513d601f19601f820116820180604052508101906128089190614254565b60015b61288e573d806000811461283b576040519150601f19603f3d011682016040523d82523d6000602084013e612840565b606091505b50600081511415612886576040517f08c379a000000000000000000000000000000000000000000000000000000000815260040161287d906140b8565b60405180910390fd5b805181602001fd5b63150b7a0260e01b7bffffffffffffffffffffffffffffffffffffffffffffffffffffffff1916817bffffffffffffffffffffffffffffffffffffffffffffffffffffffff1916149150506128e3565b600190505b949350505050565b6060600060016128fa84612a41565b01905060008167ffffffffffffffff8111156129195761291861356a565b5b6040519080825280601f01601f19166020018201604052801561294b5781602001600182028036833780820191505090505b509050600082602001820190505b6001156129b8578080600190039150507f3031323334353637383961626364656600000000000000000000000000000000600a86061a8153600a85816129a2576129a1614281565b5b04945060008514156129b3576129b8565b612959565b819350505050919050565b6129cd8383612b94565b6129da6000848484612754565b612a19576040517f08c379a0000000000000000000000000000000000000000000000000000000008152600401612a10906140b8565b60405180910390fd5b505050565b6000808273ffffffffffffffffffffffffffffffffffffffff163b119050919050565b600080600090507a184f03e93ff9f4daa797ed6e38ed64bf6a1f0100000000000000008310612a9f577a184f03e93ff9f4daa797ed6e38ed64bf6a1f0100000000000000008381612a9557612a94614281565b5b0492506040810190505b6d04ee2d6d415b85acef81000000008310612adc576d04ee2d6d415b85acef81000000008381612ad257612ad1614281565b5b0492506020810190505b662386f26fc100008310612b0b57662386f26fc100008381612b0157612b00614281565b5b0492506010810190505b6305f5e1008310612b34576305f5e1008381612b2a57612b29614281565b5b0492506008810190505b6127108310612b59576127108381612b4f57612b4e614281565b5b0492506004810190505b60648310612b7c5760648381612b7257612b71614281565b5b0492506002810190505b600a8310612b8b576001810190505b80915050919050565b600073ffffffffffffffffffffffffffffffffffffffff168273ffffffffffffffffffffffffffffffffffffffff161415612c04576040517f08c379a0000000000000000000000000000000000000000000000000000000008152600401612bfb906142fc565b60405180910390fd5b612c0d816125e7565b15612c4d576040517f08c379a0000000000000000000000000000000000000000000000000000000008152600401612c4490614368565b60405180910390fd5b612c5b600083836001612628565b612c64816125e7565b15612ca4576040517f08c379a0000000000000000000000000000000000000000000000000000000008152600401612c9b90614368565b60405180910390fd5b6001600360008473ffffffffffffffffffffffffffffffffffffffff1673ffffffffffffffffffffffffffffffffffffffff16815260200190815260200160002060008282540192505081905550816002600083815260200190815260200160002060006101000a81548173ffffffffffffffffffffffffffffffffffffffff021916908373ffffffffffffffffffffffffffffffffffffffff160217905550808273ffffffffffffffffffffffffffffffffffffffff16600073ffffffffffffffffffffffffffffffffffffffff167fddf252ad1be2c89b69c2b068fc378daa952ba7f163c4a11628f55a4df523b3ef60405160405180910390a4612dae60008383600161274e565b5050565b6040518060e0016040528060008152602001600073ffffffffffffffffffffffffffffffffffffffff168152602001600073ffffffffffffffffffffffffffffffffffffffff1681526020016000815260200160001515815260200160608152602001606081525090565b828054612e29906138e3565b90600052602060002090601f016020900481019282612e4b5760008555612e92565b82601f10612e6457805160ff1916838001178555612e92565b82800160010185558215612e92579182015b82811115612e91578251825591602001919060010190612e76565b5b509050612e9f9190612ea3565b5090565b5b80821115612ebc576000816000905550600101612ea4565b5090565b6000604051905090565b600080fd5b600080fd5b60007fffffffff0000000000000000000000000000000000000000000000000000000082169050919050565b612f0981612ed4565b8114612f1457600080fd5b50565b600081359050612f2681612f00565b92915050565b600060208284031215612f4257612f41612eca565b5b6000612f5084828501612f17565b91505092915050565b60008115159050919050565b612f6e81612f59565b82525050565b6000602082019050612f896000830184612f65565b92915050565b600081519050919050565b600082825260208201905092915050565b60005b83811015612fc9578082015181840152602081019050612fae565b83811115612fd8576000848401525b50505050565b6000601f19601f8301169050919050565b6000612ffa82612f8f565b6130048185612f9a565b9350613014818560208601612fab565b61301d81612fde565b840191505092915050565b600060208201905081810360008301526130428184612fef565b905092915050565b6000819050919050565b61305d8161304a565b811461306857600080fd5b50565b60008135905061307a81613054565b92915050565b60006020828403121561309657613095612eca565b5b60006130a48482850161306b565b91505092915050565b600073ffffffffffffffffffffffffffffffffffffffff82169050919050565b60006130d8826130ad565b9050919050565b6130e8816130cd565b82525050565b600060208201905061310360008301846130df565b92915050565b613112816130cd565b811461311d57600080fd5b50565b60008135905061312f81613109565b92915050565b6000806040838503121561314c5761314b612eca565b5b600061315a85828601613120565b925050602061316b8582860161306b565b9150509250929050565b60008060006060848603121561318e5761318d612eca565b5b600061319c86828701613120565b93505060206131ad86828701613120565b92505060406131be8682870161306b565b9150509250925092565b600081519050919050565b600082825260208201905092915050565b6000819050602082019050919050565b6131fd8161304a565b82525050565b600061320e826130ad565b9050919050565b61321e81613203565b82525050565b61322d81612f59565b82525050565b600082825260208201905092915050565b600061324f82612f8f565b6132598185613233565b9350613269818560208601612fab565b61327281612fde565b840191505092915050565b600060e08301600083015161329560008601826131f4565b5060208301516132a86020860182613215565b5060408301516132bb6040860182613215565b5060608301516132ce60608601826131f4565b5060808301516132e16080860182613224565b5060a083015184820360a08601526132f98282613244565b91505060c083015184820360c08601526133138282613244565b9150508091505092915050565b600061332c838361327d565b905092915050565b6000602082019050919050565b600061334c826131c8565b61335681856131d3565b935083602082028501613368856131e4565b8060005b858110156133a457848403895281516133858582613320565b945061339083613334565b925060208a0199505060018101905061336c565b50829750879550505050505092915050565b600060208201905081810360008301526133d08184613341565b905092915050565b6133e18161304a565b82525050565b60006020820190506133fc60008301846133d8565b92915050565b60006020828403121561341857613417612eca565b5b600061342684828501613120565b91505092915050565b600060e08301600083015161344760008601826131f4565b50602083015161345a6020860182613215565b50604083015161346d6040860182613215565b50606083015161348060608601826131f4565b5060808301516134936080860182613224565b5060a083015184820360a08601526134ab8282613244565b91505060c083015184820360c08601526134c58282613244565b9150508091505092915050565b600060208201905081810360008301526134ec818461342f565b905092915050565b6134fd81612f59565b811461350857600080fd5b50565b60008135905061351a816134f4565b92915050565b6000806040838503121561353757613536612eca565b5b600061354585828601613120565b92505060206135568582860161350b565b9150509250929050565b600080fd5b600080fd5b7f4e487b7100000000000000000000000000000000000000000000000000000000600052604160045260246000fd5b6135a282612fde565b810181811067ffffffffffffffff821117156135c1576135c061356a565b5b80604052505050565b60006135d4612ec0565b90506135e08282613599565b919050565b600067ffffffffffffffff821115613600576135ff61356a565b5b61360982612fde565b9050602081019050919050565b82818337600083830152505050565b6000613638613633846135e5565b6135ca565b90508281526020810184848401111561365457613653613565565b5b61365f848285613616565b509392505050565b600082601f83011261367c5761367b613560565b5b813561368c848260208601613625565b91505092915050565b600080600080608085870312156136af576136ae612eca565b5b60006136bd87828801613120565b94505060206136ce87828801613120565b93505060406136df8782880161306b565b925050606085013567ffffffffffffffff811115613700576136ff612ecf565b5b61370c87828801613667565b91505092959194509250565b600067ffffffffffffffff8211156137335761373261356a565b5b61373c82612fde565b9050602081019050919050565b600061375c61375784613718565b6135ca565b90508281526020810184848401111561377857613777613565565b5b613783848285613616565b509392505050565b600082601f8301126137a05761379f613560565b5b81356137b0848260208601613749565b91505092915050565b600080600080608085870312156137d3576137d2612eca565b5b600085013567ffffffffffffffff8111156137f1576137f0612ecf565b5b6137fd8782880161378b565b945050602061380e8782880161306b565b935050604085013567ffffffffffffffff81111561382f5761382e612ecf565b5b61383b8782880161378b565b925050606085013567ffffffffffffffff81111561385c5761385b612ecf565b5b6138688782880161378b565b91505092959194509250565b6000806040838503121561388b5761388a612eca565b5b600061389985828601613120565b92505060206138aa85828601613120565b9150509250929050565b7f4e487b7100000000000000000000000000000000000000000000000000000000600052602260045260246000fd5b600060028204905060018216806138fb57607f821691505b6020821081141561390f5761390e6138b4565b5b50919050565b7f4552433732313a20617070726f76616c20746f2063757272656e74206f776e6560008201527f7200000000000000000000000000000000000000000000000000000000000000602082015250565b6000613971602183612f9a565b915061397c82613915565b604082019050919050565b600060208201905081810360008301526139a081613964565b9050919050565b7f4552433732313a20617070726f76652063616c6c6572206973206e6f7420746f60008201527f6b656e206f776e6572206f7220617070726f76656420666f7220616c6c000000602082015250565b6000613a03603d83612f9a565b9150613a0e826139a7565b604082019050919050565b60006020820190508181036000830152613a32816139f6565b9050919050565b7f4552433732313a2063616c6c6572206973206e6f7420746f6b656e206f776e6560008201527f72206f7220617070726f76656400000000000000000000000000000000000000602082015250565b6000613a95602d83612f9a565b9150613aa082613a39565b604082019050919050565b60006020820190508181036000830152613ac481613a88565b9050919050565b7f4e487b7100000000000000000000000000000000000000000000000000000000600052601160045260246000fd5b6000613b058261304a565b9150613b108361304a565b9250827fffffffffffffffffffffffffffffffffffffffffffffffffffffffffffffffff03821115613b4557613b44613acb565b5b828201905092915050565b6000613b5b8261304a565b91507fffffffffffffffffffffffffffffffffffffffffffffffffffffffffffffffff821415613b8e57613b8d613acb565b5b600182019050919050565b7f4e487b7100000000000000000000000000000000000000000000000000000000600052603260045260246000fd5b7f4552433732313a20696e76616c696420746f6b656e2049440000000000000000600082015250565b6000613bfe601883612f9a565b9150613c0982613bc8565b602082019050919050565b60006020820190508181036000830152613c2d81613bf1565b9050919050565b7f4552433732313a2061646472657373207a65726f206973206e6f74206120766160008201527f6c6964206f776e65720000000000000000000000000000000000000000000000602082015250565b6000613c90602983612f9a565b9150613c9b82613c34565b604082019050919050565b60006020820190508181036000830152613cbf81613c83565b9050919050565b7f506c65617365207375626d6974207468652061736b696e67207072696365206660008201527f6f7220746865204e465420696e206f7264657220746f20707572636861736500602082015250565b6000613d22603f83612f9a565b9150613d2d82613cc6565b604082019050919050565b60006020820190508181036000830152613d5181613d15565b9050919050565b600081905092915050565b6000613d6e82612f8f565b613d788185613d58565b9350613d88818560208601612fab565b80840191505092915050565b6000613da08285613d63565b9150613dac8284613d63565b91508190509392505050565b7f53656e6420656e6f75676820657468657220746f206c69737400000000000000600082015250565b6000613dee601983612f9a565b9150613df982613db8565b602082019050919050565b60006020820190508181036000830152613e1d81613de1565b9050919050565b7f4d616b6520737572652074686520707269636520696e732774206e656761746960008201527f7665000000000000000000000000000000000000000000000000000000000000602082015250565b6000613e80602283612f9a565b9150613e8b82613e24565b604082019050919050565b60006020820190508181036000830152613eaf81613e73565b9050919050565b7f4552433732313a207472616e736665722066726f6d20696e636f72726563742060008201527f6f776e6572000000000000000000000000000000000000000000000000000000602082015250565b6000613f12602583612f9a565b9150613f1d82613eb6565b604082019050919050565b60006020820190508181036000830152613f4181613f05565b9050919050565b7f4552433732313a207472616e7366657220746f20746865207a65726f2061646460008201527f7265737300000000000000000000000000000000000000000000000000000000602082015250565b6000613fa4602483612f9a565b9150613faf82613f48565b604082019050919050565b60006020820190508181036000830152613fd381613f97565b9050919050565b7f4552433732313a20617070726f766520746f2063616c6c657200000000000000600082015250565b6000614010601983612f9a565b915061401b82613fda565b602082019050919050565b6000602082019050818103600083015261403f81614003565b9050919050565b7f4552433732313a207472616e7366657220746f206e6f6e20455243373231526560008201527f63656976657220696d706c656d656e7465720000000000000000000000000000602082015250565b60006140a2603283612f9a565b91506140ad82614046565b604082019050919050565b600060208201905081810360008301526140d181614095565b9050919050565b7f45524337323155524953746f726167653a2055524920736574206f66206e6f6e60008201527f6578697374656e7420746f6b656e000000000000000000000000000000000000602082015250565b6000614134602e83612f9a565b915061413f826140d8565b604082019050919050565b6000602082019050818103600083015261416381614127565b9050919050565b60006141758261304a565b91506141808361304a565b92508282101561419357614192613acb565b5b828203905092915050565b600081519050919050565b600082825260208201905092915050565b60006141c58261419e565b6141cf81856141a9565b93506141df818560208601612fab565b6141e881612fde565b840191505092915050565b600060808201905061420860008301876130df565b61421560208301866130df565b61422260408301856133d8565b818103606083015261423481846141ba565b905095945050505050565b60008151905061424e81612f00565b92915050565b60006020828403121561426a57614269612eca565b5b60006142788482850161423f565b91505092915050565b7f4e487b7100000000000000000000000000000000000000000000000000000000600052601260045260246000fd5b7f4552433732313a206d696e7420746f20746865207a65726f2061646472657373600082015250565b60006142e6602083612f9a565b91506142f1826142b0565b602082019050919050565b60006020820190508181036000830152614315816142d9565b9050919050565b7f4552433732313a20746f6b656e20616c7265616479206d696e74656400000000600082015250565b6000614352601c83612f9a565b915061435d8261431c565b602082019050919050565b6000602082019050818103600083015261438181614345565b905091905056fea264697066735822122010db77b5374dbb92da61dd361980c67880f3cde36e95c8e466d000900299cc7c64736f6c63430008090033",
  "linkReferences": {},
  "deployedLinkReferences": {}
}