{
  "_format": "hh-sol-artifact-1",
  "contractName": "REstate",
  "sourceName": "contracts/REstate.sol",
  "abi": [
    {
      "inputs": [],
      "stateMutability": "nonpayable",
      "type": "constructor"
    },
    {
      "anonymous": false,
      "inputs": [
        {
          "indexed": true,
          "internalType": "address",
          "name": "owner",
          "type": "address"
        },
        {
          "indexed": true,
          "internalType": "address",
          "name": "approved",
          "type": "address"
        },
        {
          "indexed": true,
          "internalType": "uint256",
          "name": "tokenId",
          "type": "uint256"
        }
      ],
      "name": "Approval",
      "type": "event"
    },
    {
      "anonymous": false,
      "inputs": [
        {
          "indexed": true,
          "internalType": "address",
          "name": "owner",
          "type": "address"
        },
        {
          "indexed": true,
          "internalType": "address",
          "name": "operator",
          "type": "address"
        },
        {
          "indexed": false,
          "internalType": "bool",
          "name": "approved",
          "type": "bool"
        }
      ],
      "name": "ApprovalForAll",
      "type": "event"
    },
    {
      "anonymous": false,
      "inputs": [
        {
          "indexed": true,
          "internalType": "address",
          "name": "from",
          "type": "address"
        },
        {
          "indexed": true,
          "internalType": "address",
          "name": "to",
          "type": "address"
        },
        {
          "indexed": true,
          "internalType": "uint256",
          "name": "tokenId",
          "type": "uint256"
        }
      ],
      "name": "Transfer",
      "type": "event"
    },
    {
      "inputs": [
        {
          "internalType": "address",
          "name": "to",
          "type": "address"
        },
        {
          "internalType": "uint256",
          "name": "tokenId",
          "type": "uint256"
        }
      ],
      "name": "approve",
      "outputs": [],
      "stateMutability": "nonpayable",
      "type": "function"
    },
    {
      "inputs": [
        {
          "internalType": "address",
          "name": "owner",
          "type": "address"
        }
      ],
      "name": "balanceOf",
      "outputs": [
        {
          "internalType": "uint256",
          "name": "",
          "type": "uint256"
        }
      ],
      "stateMutability": "view",
      "type": "function"
    },
    {
      "inputs": [
        {
          "internalType": "string",
          "name": "tokenURI",
          "type": "string"
        },
        {
          "internalType": "uint256",
          "name": "price",
          "type": "uint256"
        },
        {
          "internalType": "string",
          "name": "_name",
          "type": "string"
        }
      ],
      "name": "createToken",
      "outputs": [
        {
          "internalType": "uint256",
          "name": "",
          "type": "uint256"
        }
      ],
      "stateMutability": "payable",
      "type": "function"
    },
    {
      "inputs": [
        {
          "internalType": "uint256",
          "name": "tokenId",
          "type": "uint256"
        }
      ],
      "name": "executeSale",
      "outputs": [],
      "stateMutability": "payable",
      "type": "function"
    },
    {
      "inputs": [],
      "name": "getAllPropertys",
      "outputs": [
        {
          "components": [
            {
              "internalType": "uint256",
              "name": "tokenId",
              "type": "uint256"
            },
            {
              "internalType": "address payable",
              "name": "owner",
              "type": "address"
            },
            {
              "internalType": "address payable",
              "name": "seller",
              "type": "address"
            },
            {
              "internalType": "uint256",
              "name": "price",
              "type": "uint256"
            },
            {
              "internalType": "bool",
              "name": "currentlyListed",
              "type": "bool"
            },
            {
              "internalType": "string",
              "name": "name",
              "type": "string"
            }
          ],
          "internalType": "struct REstate.ListedProperty[]",
          "name": "",
          "type": "tuple[]"
        }
      ],
      "stateMutability": "view",
      "type": "function"
    },
    {
      "inputs": [
        {
          "internalType": "uint256",
          "name": "tokenId",
          "type": "uint256"
        }
      ],
      "name": "getApproved",
      "outputs": [
        {
          "internalType": "address",
          "name": "",
          "type": "address"
        }
      ],
      "stateMutability": "view",
      "type": "function"
    },
    {
      "inputs": [],
      "name": "getCurrentTokenId",
      "outputs": [
        {
          "internalType": "uint256",
          "name": "",
          "type": "uint256"
        }
      ],
      "stateMutability": "view",
      "type": "function"
    },
    {
      "inputs": [],
      "name": "getLatestIdToListedProperty",
      "outputs": [
        {
          "components": [
            {
              "internalType": "uint256",
              "name": "tokenId",
              "type": "uint256"
            },
            {
              "internalType": "address payable",
              "name": "owner",
              "type": "address"
            },
            {
              "internalType": "address payable",
              "name": "seller",
              "type": "address"
            },
            {
              "internalType": "uint256",
              "name": "price",
              "type": "uint256"
            },
            {
              "internalType": "bool",
              "name": "currentlyListed",
              "type": "bool"
            },
            {
              "internalType": "string",
              "name": "name",
              "type": "string"
            }
          ],
          "internalType": "struct REstate.ListedProperty",
          "name": "",
          "type": "tuple"
        }
      ],
      "stateMutability": "view",
      "type": "function"
    },
    {
      "inputs": [],
      "name": "getListPrice",
      "outputs": [
        {
          "internalType": "uint256",
          "name": "",
          "type": "uint256"
        }
      ],
      "stateMutability": "view",
      "type": "function"
    },
    {
      "inputs": [
        {
          "internalType": "uint256",
          "name": "tokenId",
          "type": "uint256"
        }
      ],
      "name": "getListedForTokenId",
      "outputs": [
        {
          "components": [
            {
              "internalType": "uint256",
              "name": "tokenId",
              "type": "uint256"
            },
            {
              "internalType": "address payable",
              "name": "owner",
              "type": "address"
            },
            {
              "internalType": "address payable",
              "name": "seller",
              "type": "address"
            },
            {
              "internalType": "uint256",
              "name": "price",
              "type": "uint256"
            },
            {
              "internalType": "bool",
              "name": "currentlyListed",
              "type": "bool"
            },
            {
              "internalType": "string",
              "name": "name",
              "type": "string"
            }
          ],
          "internalType": "struct REstate.ListedProperty",
          "name": "",
          "type": "tuple"
        }
      ],
      "stateMutability": "view",
      "type": "function"
    },
    {
      "inputs": [],
      "name": "getMyPropertys",
      "outputs": [
        {
          "components": [
            {
              "internalType": "uint256",
              "name": "tokenId",
              "type": "uint256"
            },
            {
              "internalType": "address payable",
              "name": "owner",
              "type": "address"
            },
            {
              "internalType": "address payable",
              "name": "seller",
              "type": "address"
            },
            {
              "internalType": "uint256",
              "name": "price",
              "type": "uint256"
            },
            {
              "internalType": "bool",
              "name": "currentlyListed",
              "type": "bool"
            },
            {
              "internalType": "string",
              "name": "name",
              "type": "string"
            }
          ],
          "internalType": "struct REstate.ListedProperty[]",
          "name": "",
          "type": "tuple[]"
        }
      ],
      "stateMutability": "view",
      "type": "function"
    },
    {
      "inputs": [
        {
          "internalType": "address",
          "name": "owner",
          "type": "address"
        },
        {
          "internalType": "address",
          "name": "operator",
          "type": "address"
        }
      ],
      "name": "isApprovedForAll",
      "outputs": [
        {
          "internalType": "bool",
          "name": "",
          "type": "bool"
        }
      ],
      "stateMutability": "view",
      "type": "function"
    },
    {
      "inputs": [],
      "name": "name",
      "outputs": [
        {
          "internalType": "string",
          "name": "",
          "type": "string"
        }
      ],
      "stateMutability": "view",
      "type": "function"
    },
    {
      "inputs": [
        {
          "internalType": "uint256",
          "name": "tokenId",
          "type": "uint256"
        }
      ],
      "name": "ownerOf",
      "outputs": [
        {
          "internalType": "address",
          "name": "",
          "type": "address"
        }
      ],
      "stateMutability": "view",
      "type": "function"
    },
    {
      "inputs": [
        {
          "internalType": "address",
          "name": "from",
          "type": "address"
        },
        {
          "internalType": "address",
          "name": "to",
          "type": "address"
        },
        {
          "internalType": "uint256",
          "name": "tokenId",
          "type": "uint256"
        }
      ],
      "name": "safeTransferFrom",
      "outputs": [],
      "stateMutability": "nonpayable",
      "type": "function"
    },
    {
      "inputs": [
        {
          "internalType": "address",
          "name": "from",
          "type": "address"
        },
        {
          "internalType": "address",
          "name": "to",
          "type": "address"
        },
        {
          "internalType": "uint256",
          "name": "tokenId",
          "type": "uint256"
        },
        {
          "internalType": "bytes",
          "name": "data",
          "type": "bytes"
        }
      ],
      "name": "safeTransferFrom",
      "outputs": [],
      "stateMutability": "nonpayable",
      "type": "function"
    },
    {
      "inputs": [
        {
          "internalType": "address",
          "name": "operator",
          "type": "address"
        },
        {
          "internalType": "bool",
          "name": "approved",
          "type": "bool"
        }
      ],
      "name": "setApprovalForAll",
      "outputs": [],
      "stateMutability": "nonpayable",
      "type": "function"
    },
    {
      "inputs": [
        {
          "internalType": "bytes4",
          "name": "interfaceId",
          "type": "bytes4"
        }
      ],
      "name": "supportsInterface",
      "outputs": [
        {
          "internalType": "bool",
          "name": "",
          "type": "bool"
        }
      ],
      "stateMutability": "view",
      "type": "function"
    },
    {
      "inputs": [],
      "name": "symbol",
      "outputs": [
        {
          "internalType": "string",
          "name": "",
          "type": "string"
        }
      ],
      "stateMutability": "view",
      "type": "function"
    },
    {
      "inputs": [
        {
          "internalType": "uint256",
          "name": "tokenId",
          "type": "uint256"
        }
      ],
      "name": "tokenURI",
      "outputs": [
        {
          "internalType": "string",
          "name": "",
          "type": "string"
        }
      ],
      "stateMutability": "view",
      "type": "function"
    },
    {
      "inputs": [
        {
          "internalType": "address",
          "name": "from",
          "type": "address"
        },
        {
          "internalType": "address",
          "name": "to",
          "type": "address"
        },
        {
          "internalType": "uint256",
          "name": "tokenId",
          "type": "uint256"
        }
      ],
      "name": "transferFrom",
      "outputs": [],
      "stateMutability": "nonpayable",
      "type": "function"
    },
    {
      "inputs": [
        {
          "internalType": "uint256",
          "name": "_listPrice",
          "type": "uint256"
        }
      ],
      "name": "updateListPrice",
      "outputs": [],
      "stateMutability": "payable",
      "type": "function"
    }
  ],
  "bytecode": "0x6080604052662386f26fc10000600a553480156200001c57600080fd5b506040518060400160405280600881526020017f522d4573746174650000000000000000000000000000000000000000000000008152506040518060400160405280600381526020017f52535400000000000000000000000000000000000000000000000000000000008152508160009080519060200190620000a192919062000104565b508060019080519060200190620000ba92919062000104565b50505033600760006101000a81548173ffffffffffffffffffffffffffffffffffffffff021916908373ffffffffffffffffffffffffffffffffffffffff16021790555062000219565b8280546200011290620001e3565b90600052602060002090601f01602090048101928262000136576000855562000182565b82601f106200015157805160ff191683800117855562000182565b8280016001018555821562000182579182015b828111156200018157825182559160200191906001019062000164565b5b50905062000191919062000195565b5090565b5b80821115620001b057600081600090555060010162000196565b5090565b7f4e487b7100000000000000000000000000000000000000000000000000000000600052602260045260246000fd5b60006002820490506001821680620001fc57607f821691505b60208210811415620002135762000212620001b4565b5b50919050565b6140e580620002296000396000f3fe6080604052600436106101355760003560e01c806370a08231116100ab578063a22cb4651161006f578063a22cb4651461042f578063b88d4fde14610458578063c322579c14610481578063c6c9b5b11461049d578063c87b56dd146104cd578063e985e9c51461050a57610135565b806370a082311461034357806395d89b4114610380578063973b3e06146103ab57806398c3df16146103d65780639b1225c41461041357610135565b806336bdda45116100fd57806336bdda451461023157806342842e0e1461025c5780634fa42ce11461028557806356189236146102b05780636352211e146102db57806368f1945f1461031857610135565b806301ffc9a71461013a57806306fdde0314610177578063081812fc146101a2578063095ea7b3146101df57806323b872dd14610208575b600080fd5b34801561014657600080fd5b50610161600480360381019061015c9190612cb7565b610547565b60405161016e9190612cff565b60405180910390f35b34801561018357600080fd5b5061018c610629565b6040516101999190612db3565b60405180910390f35b3480156101ae57600080fd5b506101c960048036038101906101c49190612e0b565b6106bb565b6040516101d69190612e79565b60405180910390f35b3480156101eb57600080fd5b5061020660048036038101906102019190612ec0565b610701565b005b34801561021457600080fd5b5061022f600480360381019061022a9190612f00565b610819565b005b34801561023d57600080fd5b50610246610879565b6040516102539190613127565b60405180910390f35b34801561026857600080fd5b50610283600480360381019061027e9190612f00565b610ce9565b005b34801561029157600080fd5b5061029a610d09565b6040516102a79190613127565b60405180910390f35b3480156102bc57600080fd5b506102c5610f6a565b6040516102d29190613158565b60405180910390f35b3480156102e757600080fd5b5061030260048036038101906102fd9190612e0b565b610f7b565b60405161030f9190612e79565b60405180910390f35b34801561032457600080fd5b5061032d611002565b60405161033a9190613158565b60405180910390f35b34801561034f57600080fd5b5061036a60048036038101906103659190613173565b61100c565b6040516103779190613158565b60405180910390f35b34801561038c57600080fd5b506103956110c4565b6040516103a29190612db3565b60405180910390f35b3480156103b757600080fd5b506103c0611156565b6040516103cd9190613229565b60405180910390f35b3480156103e257600080fd5b506103fd60048036038101906103f89190612e0b565b6112fd565b60405161040a9190613229565b60405180910390f35b61042d60048036038101906104289190612e0b565b611497565b005b34801561043b57600080fd5b5061045660048036038101906104519190613277565b611689565b005b34801561046457600080fd5b5061047f600480360381019061047a91906133ec565b61169f565b005b61049b60048036038101906104969190612e0b565b611701565b005b6104b760048036038101906104b29190613510565b611765565b6040516104c49190613158565b60405180910390f35b3480156104d957600080fd5b506104f460048036038101906104ef9190612e0b565b611831565b6040516105019190612db3565b60405180910390f35b34801561051657600080fd5b50610531600480360381019061052c919061359b565b611944565b60405161053e9190612cff565b60405180910390f35b60007f80ac58cd000000000000000000000000000000000000000000000000000000007bffffffffffffffffffffffffffffffffffffffffffffffffffffffff1916827bffffffffffffffffffffffffffffffffffffffffffffffffffffffff1916148061061257507f5b5e139f000000000000000000000000000000000000000000000000000000007bffffffffffffffffffffffffffffffffffffffffffffffffffffffff1916827bffffffffffffffffffffffffffffffffffffffffffffffffffffffff1916145b806106225750610621826119d8565b5b9050919050565b6060600080546106389061360a565b80601f01602080910402602001604051908101604052809291908181526020018280546106649061360a565b80156106b15780601f10610686576101008083540402835291602001916106b1565b820191906000526020600020905b81548152906001019060200180831161069457829003601f168201915b5050505050905090565b60006106c682611a42565b6004600083815260200190815260200160002060009054906101000a900473ffffffffffffffffffffffffffffffffffffffff169050919050565b600061070c82610f7b565b90508073ffffffffffffffffffffffffffffffffffffffff168373ffffffffffffffffffffffffffffffffffffffff16141561077d576040517f08c379a0000000000000000000000000000000000000000000000000000000008152600401610774906136ae565b60405180910390fd5b8073ffffffffffffffffffffffffffffffffffffffff1661079c611a8d565b73ffffffffffffffffffffffffffffffffffffffff1614806107cb57506107ca816107c5611a8d565b611944565b5b61080a576040517f08c379a000000000000000000000000000000000000000000000000000000000815260040161080190613740565b60405180910390fd5b6108148383611a95565b505050565b61082a610824611a8d565b82611b4e565b610869576040517f08c379a0000000000000000000000000000000000000000000000000000000008152600401610860906137d2565b60405180910390fd5b610874838383611be3565b505050565b606060006108876008611edd565b905060008060005b838110156109a8573373ffffffffffffffffffffffffffffffffffffffff16600b60006001846108bf9190613821565b815260200190815260200160002060010160009054906101000a900473ffffffffffffffffffffffffffffffffffffffff1673ffffffffffffffffffffffffffffffffffffffff16148061098057503373ffffffffffffffffffffffffffffffffffffffff16600b60006001846109369190613821565b815260200190815260200160002060020160009054906101000a900473ffffffffffffffffffffffffffffffffffffffff1673ffffffffffffffffffffffffffffffffffffffff16145b15610995576001836109929190613821565b92505b80806109a090613877565b91505061088f565b5060008267ffffffffffffffff8111156109c5576109c46132c1565b5b6040519080825280602002602001820160405280156109fe57816020015b6109eb612b44565b8152602001906001900390816109e35790505b50905060005b84811015610cde573373ffffffffffffffffffffffffffffffffffffffff16600b6000600184610a349190613821565b815260200190815260200160002060010160009054906101000a900473ffffffffffffffffffffffffffffffffffffffff1673ffffffffffffffffffffffffffffffffffffffff161480610af557503373ffffffffffffffffffffffffffffffffffffffff16600b6000600184610aab9190613821565b815260200190815260200160002060020160009054906101000a900473ffffffffffffffffffffffffffffffffffffffff1673ffffffffffffffffffffffffffffffffffffffff16145b15610ccb576000600182610b099190613821565b90506000600b60008381526020019081526020016000209050806040518060c0016040529081600082015481526020016001820160009054906101000a900473ffffffffffffffffffffffffffffffffffffffff1673ffffffffffffffffffffffffffffffffffffffff1673ffffffffffffffffffffffffffffffffffffffff1681526020016002820160009054906101000a900473ffffffffffffffffffffffffffffffffffffffff1673ffffffffffffffffffffffffffffffffffffffff1673ffffffffffffffffffffffffffffffffffffffff168152602001600382015481526020016004820160009054906101000a900460ff16151515158152602001600582018054610c199061360a565b80601f0160208091040260200160405190810160405280929190818152602001828054610c459061360a565b8015610c925780601f10610c6757610100808354040283529160200191610c92565b820191906000526020600020905b815481529060010190602001808311610c7557829003601f168201915b505050505081525050848681518110610cae57610cad6138c0565b5b6020026020010181905250600185610cc69190613821565b945050505b8080610cd690613877565b915050610a04565b508094505050505090565b610d048383836040518060200160405280600081525061169f565b505050565b60606000610d176008611edd565b905060008167ffffffffffffffff811115610d3557610d346132c1565b5b604051908082528060200260200182016040528015610d6e57816020015b610d5b612b44565b815260200190600190039081610d535790505b5090506000805b83811015610f60576000600182610d8c9190613821565b90506000600b60008381526020019081526020016000209050806040518060c0016040529081600082015481526020016001820160009054906101000a900473ffffffffffffffffffffffffffffffffffffffff1673ffffffffffffffffffffffffffffffffffffffff1673ffffffffffffffffffffffffffffffffffffffff1681526020016002820160009054906101000a900473ffffffffffffffffffffffffffffffffffffffff1673ffffffffffffffffffffffffffffffffffffffff1673ffffffffffffffffffffffffffffffffffffffff168152602001600382015481526020016004820160009054906101000a900460ff16151515158152602001600582018054610e9c9061360a565b80601f0160208091040260200160405190810160405280929190818152602001828054610ec89061360a565b8015610f155780601f10610eea57610100808354040283529160200191610f15565b820191906000526020600020905b815481529060010190602001808311610ef857829003601f168201915b505050505081525050858581518110610f3157610f306138c0565b5b6020026020010181905250600184610f499190613821565b935050508080610f5890613877565b915050610d75565b5081935050505090565b6000610f766008611edd565b905090565b600080610f8783611eeb565b9050600073ffffffffffffffffffffffffffffffffffffffff168173ffffffffffffffffffffffffffffffffffffffff161415610ff9576040517f08c379a0000000000000000000000000000000000000000000000000000000008152600401610ff09061393b565b60405180910390fd5b80915050919050565b6000600a54905090565b60008073ffffffffffffffffffffffffffffffffffffffff168273ffffffffffffffffffffffffffffffffffffffff16141561107d576040517f08c379a0000000000000000000000000000000000000000000000000000000008152600401611074906139cd565b60405180910390fd5b600360008373ffffffffffffffffffffffffffffffffffffffff1673ffffffffffffffffffffffffffffffffffffffff168152602001908152602001600020549050919050565b6060600180546110d39061360a565b80601f01602080910402602001604051908101604052809291908181526020018280546110ff9061360a565b801561114c5780601f106111215761010080835404028352916020019161114c565b820191906000526020600020905b81548152906001019060200180831161112f57829003601f168201915b5050505050905090565b61115e612b44565b600061116a6008611edd565b9050600b60008281526020019081526020016000206040518060c0016040529081600082015481526020016001820160009054906101000a900473ffffffffffffffffffffffffffffffffffffffff1673ffffffffffffffffffffffffffffffffffffffff1673ffffffffffffffffffffffffffffffffffffffff1681526020016002820160009054906101000a900473ffffffffffffffffffffffffffffffffffffffff1673ffffffffffffffffffffffffffffffffffffffff1673ffffffffffffffffffffffffffffffffffffffff168152602001600382015481526020016004820160009054906101000a900460ff161515151581526020016005820180546112759061360a565b80601f01602080910402602001604051908101604052809291908181526020018280546112a19061360a565b80156112ee5780601f106112c3576101008083540402835291602001916112ee565b820191906000526020600020905b8154815290600101906020018083116112d157829003601f168201915b50505050508152505091505090565b611305612b44565b600b60008381526020019081526020016000206040518060c0016040529081600082015481526020016001820160009054906101000a900473ffffffffffffffffffffffffffffffffffffffff1673ffffffffffffffffffffffffffffffffffffffff1673ffffffffffffffffffffffffffffffffffffffff1681526020016002820160009054906101000a900473ffffffffffffffffffffffffffffffffffffffff1673ffffffffffffffffffffffffffffffffffffffff1673ffffffffffffffffffffffffffffffffffffffff168152602001600382015481526020016004820160009054906101000a900460ff1615151515815260200160058201805461140e9061360a565b80601f016020809104026020016040519081016040528092919081815260200182805461143a9061360a565b80156114875780601f1061145c57610100808354040283529160200191611487565b820191906000526020600020905b81548152906001019060200180831161146a57829003601f168201915b5050505050815250509050919050565b6000600b60008381526020019081526020016000206003015490508034146114f4576040517f08c379a00000000000000000000000000000000000000000000000000000000081526004016114eb90613a5f565b60405180910390fd5b6000600b600084815260200190815260200160002060020160009054906101000a900473ffffffffffffffffffffffffffffffffffffffff1690506001600b600085815260200190815260200160002060040160006101000a81548160ff02191690831515021790555033600b600085815260200190815260200160002060020160006101000a81548173ffffffffffffffffffffffffffffffffffffffff021916908373ffffffffffffffffffffffffffffffffffffffff1602179055506115bd6009611f28565b6115c8303385611be3565b6115d23084610701565b600760009054906101000a900473ffffffffffffffffffffffffffffffffffffffff1673ffffffffffffffffffffffffffffffffffffffff166108fc600a549081150290604051600060405180830381858888f1935050505015801561163c573d6000803e3d6000fd5b508073ffffffffffffffffffffffffffffffffffffffff166108fc349081150290604051600060405180830381858888f19350505050158015611683573d6000803e3d6000fd5b50505050565b61169b611694611a8d565b8383611f3e565b5050565b6116b06116aa611a8d565b83611b4e565b6116ef576040517f08c379a00000000000000000000000000000000000000000000000000000000081526004016116e6906137d2565b60405180910390fd5b6116fb848484846120ab565b50505050565b600760009054906101000a900473ffffffffffffffffffffffffffffffffffffffff1673ffffffffffffffffffffffffffffffffffffffff163373ffffffffffffffffffffffffffffffffffffffff161461175b57600080fd5b80600a8190555050565b6000600a543410156117ac576040517f08c379a00000000000000000000000000000000000000000000000000000000081526004016117a390613acb565b60405180910390fd5b600083116117ef576040517f08c379a00000000000000000000000000000000000000000000000000000000081526004016117e690613b5d565b60405180910390fd5b6117f96008611f28565b60006118056008611edd565b90506118113382612107565b61181b8186612125565b611826818585612199565b809150509392505050565b606061183c82611a42565b600060066000848152602001908152602001600020805461185c9061360a565b80601f01602080910402602001604051908101604052809291908181526020018280546118889061360a565b80156118d55780601f106118aa576101008083540402835291602001916118d5565b820191906000526020600020905b8154815290600101906020018083116118b857829003601f168201915b5050505050905060006118e66122fa565b90506000815114156118fc57819250505061193f565b600082511115611931578082604051602001611919929190613bb9565b6040516020818303038152906040529250505061193f565b61193a84612311565b925050505b919050565b6000600560008473ffffffffffffffffffffffffffffffffffffffff1673ffffffffffffffffffffffffffffffffffffffff16815260200190815260200160002060008373ffffffffffffffffffffffffffffffffffffffff1673ffffffffffffffffffffffffffffffffffffffff16815260200190815260200160002060009054906101000a900460ff16905092915050565b60007f01ffc9a7000000000000000000000000000000000000000000000000000000007bffffffffffffffffffffffffffffffffffffffffffffffffffffffff1916827bffffffffffffffffffffffffffffffffffffffffffffffffffffffff1916149050919050565b611a4b81612379565b611a8a576040517f08c379a0000000000000000000000000000000000000000000000000000000008152600401611a819061393b565b60405180910390fd5b50565b600033905090565b816004600083815260200190815260200160002060006101000a81548173ffffffffffffffffffffffffffffffffffffffff021916908373ffffffffffffffffffffffffffffffffffffffff160217905550808273ffffffffffffffffffffffffffffffffffffffff16611b0883610f7b565b73ffffffffffffffffffffffffffffffffffffffff167f8c5be1e5ebec7d5bd14f71427d1e84f3dd0314c0f7b2291e5b200ac8c7c3b92560405160405180910390a45050565b600080611b5a83610f7b565b90508073ffffffffffffffffffffffffffffffffffffffff168473ffffffffffffffffffffffffffffffffffffffff161480611b9c5750611b9b8185611944565b5b80611bda57508373ffffffffffffffffffffffffffffffffffffffff16611bc2846106bb565b73ffffffffffffffffffffffffffffffffffffffff16145b91505092915050565b8273ffffffffffffffffffffffffffffffffffffffff16611c0382610f7b565b73ffffffffffffffffffffffffffffffffffffffff1614611c59576040517f08c379a0000000000000000000000000000000000000000000000000000000008152600401611c5090613c4f565b60405180910390fd5b600073ffffffffffffffffffffffffffffffffffffffff168273ffffffffffffffffffffffffffffffffffffffff161415611cc9576040517f08c379a0000000000000000000000000000000000000000000000000000000008152600401611cc090613ce1565b60405180910390fd5b611cd683838360016123ba565b8273ffffffffffffffffffffffffffffffffffffffff16611cf682610f7b565b73ffffffffffffffffffffffffffffffffffffffff1614611d4c576040517f08c379a0000000000000000000000000000000000000000000000000000000008152600401611d4390613c4f565b60405180910390fd5b6004600082815260200190815260200160002060006101000a81549073ffffffffffffffffffffffffffffffffffffffff02191690556001600360008573ffffffffffffffffffffffffffffffffffffffff1673ffffffffffffffffffffffffffffffffffffffff168152602001908152602001600020600082825403925050819055506001600360008473ffffffffffffffffffffffffffffffffffffffff1673ffffffffffffffffffffffffffffffffffffffff16815260200190815260200160002060008282540192505081905550816002600083815260200190815260200160002060006101000a81548173ffffffffffffffffffffffffffffffffffffffff021916908373ffffffffffffffffffffffffffffffffffffffff160217905550808273ffffffffffffffffffffffffffffffffffffffff168473ffffffffffffffffffffffffffffffffffffffff167fddf252ad1be2c89b69c2b068fc378daa952ba7f163c4a11628f55a4df523b3ef60405160405180910390a4611ed883838360016124e0565b505050565b600081600001549050919050565b60006002600083815260200190815260200160002060009054906101000a900473ffffffffffffffffffffffffffffffffffffffff169050919050565b6001816000016000828254019250508190555050565b8173ffffffffffffffffffffffffffffffffffffffff168373ffffffffffffffffffffffffffffffffffffffff161415611fad576040517f08c379a0000000000000000000000000000000000000000000000000000000008152600401611fa490613d4d565b60405180910390fd5b80600560008573ffffffffffffffffffffffffffffffffffffffff1673ffffffffffffffffffffffffffffffffffffffff16815260200190815260200160002060008473ffffffffffffffffffffffffffffffffffffffff1673ffffffffffffffffffffffffffffffffffffffff16815260200190815260200160002060006101000a81548160ff0219169083151502179055508173ffffffffffffffffffffffffffffffffffffffff168373ffffffffffffffffffffffffffffffffffffffff167f17307eab39ab6107e8899845ad3d59bd9653f200f220920489ca2b5937696c318360405161209e9190612cff565b60405180910390a3505050565b6120b6848484611be3565b6120c2848484846124e6565b612101576040517f08c379a00000000000000000000000000000000000000000000000000000000081526004016120f890613ddf565b60405180910390fd5b50505050565b61212182826040518060200160405280600081525061267d565b5050565b61212e82612379565b61216d576040517f08c379a000000000000000000000000000000000000000000000000000000000815260040161216490613e71565b60405180910390fd5b80600660008481526020019081526020016000209080519060200190612194929190612ba8565b505050565b6040518060c001604052808481526020013073ffffffffffffffffffffffffffffffffffffffff1681526020013373ffffffffffffffffffffffffffffffffffffffff16815260200183815260200160011515815260200182815250600b60008581526020019081526020016000206000820151816000015560208201518160010160006101000a81548173ffffffffffffffffffffffffffffffffffffffff021916908373ffffffffffffffffffffffffffffffffffffffff16021790555060408201518160020160006101000a81548173ffffffffffffffffffffffffffffffffffffffff021916908373ffffffffffffffffffffffffffffffffffffffff1602179055506060820151816003015560808201518160040160006101000a81548160ff02191690831515021790555060a08201518160050190805190602001906122e6929190612ba8565b509050506122f5333085611be3565b505050565b606060405180602001604052806000815250905090565b606061231c82611a42565b60006123266122fa565b905060008151116123465760405180602001604052806000815250612371565b80612350846126d8565b604051602001612361929190613bb9565b6040516020818303038152906040525b915050919050565b60008073ffffffffffffffffffffffffffffffffffffffff1661239b83611eeb565b73ffffffffffffffffffffffffffffffffffffffff1614159050919050565b60018111156124da57600073ffffffffffffffffffffffffffffffffffffffff168473ffffffffffffffffffffffffffffffffffffffff161461244e5780600360008673ffffffffffffffffffffffffffffffffffffffff1673ffffffffffffffffffffffffffffffffffffffff16815260200190815260200160002060008282546124469190613e91565b925050819055505b600073ffffffffffffffffffffffffffffffffffffffff168373ffffffffffffffffffffffffffffffffffffffff16146124d95780600360008573ffffffffffffffffffffffffffffffffffffffff1673ffffffffffffffffffffffffffffffffffffffff16815260200190815260200160002060008282546124d19190613821565b925050819055505b5b50505050565b50505050565b60006125078473ffffffffffffffffffffffffffffffffffffffff166127b0565b15612670578373ffffffffffffffffffffffffffffffffffffffff1663150b7a02612530611a8d565b8786866040518563ffffffff1660e01b81526004016125529493929190613f1a565b602060405180830381600087803b15801561256c57600080fd5b505af192505050801561259d57506040513d601f19601f8201168201806040525081019061259a9190613f7b565b60015b612620573d80600081146125cd576040519150601f19603f3d011682016040523d82523d6000602084013e6125d2565b606091505b50600081511415612618576040517f08c379a000000000000000000000000000000000000000000000000000000000815260040161260f90613ddf565b60405180910390fd5b805181602001fd5b63150b7a0260e01b7bffffffffffffffffffffffffffffffffffffffffffffffffffffffff1916817bffffffffffffffffffffffffffffffffffffffffffffffffffffffff191614915050612675565b600190505b949350505050565b61268783836127d3565b61269460008484846124e6565b6126d3576040517f08c379a00000000000000000000000000000000000000000000000000000000081526004016126ca90613ddf565b60405180910390fd5b505050565b6060600060016126e7846129f1565b01905060008167ffffffffffffffff811115612706576127056132c1565b5b6040519080825280601f01601f1916602001820160405280156127385781602001600182028036833780820191505090505b509050600082602001820190505b6001156127a5578080600190039150507f3031323334353637383961626364656600000000000000000000000000000000600a86061a8153600a858161278f5761278e613fa8565b5b04945060008514156127a0576127a5565b612746565b819350505050919050565b6000808273ffffffffffffffffffffffffffffffffffffffff163b119050919050565b600073ffffffffffffffffffffffffffffffffffffffff168273ffffffffffffffffffffffffffffffffffffffff161415612843576040517f08c379a000000000000000000000000000000000000000000000000000000000815260040161283a90614023565b60405180910390fd5b61284c81612379565b1561288c576040517f08c379a00000000000000000000000000000000000000000000000000000000081526004016128839061408f565b60405180910390fd5b61289a6000838360016123ba565b6128a381612379565b156128e3576040517f08c379a00000000000000000000000000000000000000000000000000000000081526004016128da9061408f565b60405180910390fd5b6001600360008473ffffffffffffffffffffffffffffffffffffffff1673ffffffffffffffffffffffffffffffffffffffff16815260200190815260200160002060008282540192505081905550816002600083815260200190815260200160002060006101000a81548173ffffffffffffffffffffffffffffffffffffffff021916908373ffffffffffffffffffffffffffffffffffffffff160217905550808273ffffffffffffffffffffffffffffffffffffffff16600073ffffffffffffffffffffffffffffffffffffffff167fddf252ad1be2c89b69c2b068fc378daa952ba7f163c4a11628f55a4df523b3ef60405160405180910390a46129ed6000838360016124e0565b5050565b600080600090507a184f03e93ff9f4daa797ed6e38ed64bf6a1f0100000000000000008310612a4f577a184f03e93ff9f4daa797ed6e38ed64bf6a1f0100000000000000008381612a4557612a44613fa8565b5b0492506040810190505b6d04ee2d6d415b85acef81000000008310612a8c576d04ee2d6d415b85acef81000000008381612a8257612a81613fa8565b5b0492506020810190505b662386f26fc100008310612abb57662386f26fc100008381612ab157612ab0613fa8565b5b0492506010810190505b6305f5e1008310612ae4576305f5e1008381612ada57612ad9613fa8565b5b0492506008810190505b6127108310612b09576127108381612aff57612afe613fa8565b5b0492506004810190505b60648310612b2c5760648381612b2257612b21613fa8565b5b0492506002810190505b600a8310612b3b576001810190505b80915050919050565b6040518060c0016040528060008152602001600073ffffffffffffffffffffffffffffffffffffffff168152602001600073ffffffffffffffffffffffffffffffffffffffff16815260200160008152602001600015158152602001606081525090565b828054612bb49061360a565b90600052602060002090601f016020900481019282612bd65760008555612c1d565b82601f10612bef57805160ff1916838001178555612c1d565b82800160010185558215612c1d579182015b82811115612c1c578251825591602001919060010190612c01565b5b509050612c2a9190612c2e565b5090565b5b80821115612c47576000816000905550600101612c2f565b5090565b6000604051905090565b600080fd5b600080fd5b60007fffffffff0000000000000000000000000000000000000000000000000000000082169050919050565b612c9481612c5f565b8114612c9f57600080fd5b50565b600081359050612cb181612c8b565b92915050565b600060208284031215612ccd57612ccc612c55565b5b6000612cdb84828501612ca2565b91505092915050565b60008115159050919050565b612cf981612ce4565b82525050565b6000602082019050612d146000830184612cf0565b92915050565b600081519050919050565b600082825260208201905092915050565b60005b83811015612d54578082015181840152602081019050612d39565b83811115612d63576000848401525b50505050565b6000601f19601f8301169050919050565b6000612d8582612d1a565b612d8f8185612d25565b9350612d9f818560208601612d36565b612da881612d69565b840191505092915050565b60006020820190508181036000830152612dcd8184612d7a565b905092915050565b6000819050919050565b612de881612dd5565b8114612df357600080fd5b50565b600081359050612e0581612ddf565b92915050565b600060208284031215612e2157612e20612c55565b5b6000612e2f84828501612df6565b91505092915050565b600073ffffffffffffffffffffffffffffffffffffffff82169050919050565b6000612e6382612e38565b9050919050565b612e7381612e58565b82525050565b6000602082019050612e8e6000830184612e6a565b92915050565b612e9d81612e58565b8114612ea857600080fd5b50565b600081359050612eba81612e94565b92915050565b60008060408385031215612ed757612ed6612c55565b5b6000612ee585828601612eab565b9250506020612ef685828601612df6565b9150509250929050565b600080600060608486031215612f1957612f18612c55565b5b6000612f2786828701612eab565b9350506020612f3886828701612eab565b9250506040612f4986828701612df6565b9150509250925092565b600081519050919050565b600082825260208201905092915050565b6000819050602082019050919050565b612f8881612dd5565b82525050565b6000612f9982612e38565b9050919050565b612fa981612f8e565b82525050565b612fb881612ce4565b82525050565b600082825260208201905092915050565b6000612fda82612d1a565b612fe48185612fbe565b9350612ff4818560208601612d36565b612ffd81612d69565b840191505092915050565b600060c0830160008301516130206000860182612f7f565b5060208301516130336020860182612fa0565b5060408301516130466040860182612fa0565b5060608301516130596060860182612f7f565b50608083015161306c6080860182612faf565b5060a083015184820360a08601526130848282612fcf565b9150508091505092915050565b600061309d8383613008565b905092915050565b6000602082019050919050565b60006130bd82612f53565b6130c78185612f5e565b9350836020820285016130d985612f6f565b8060005b8581101561311557848403895281516130f68582613091565b9450613101836130a5565b925060208a019950506001810190506130dd565b50829750879550505050505092915050565b6000602082019050818103600083015261314181846130b2565b905092915050565b61315281612dd5565b82525050565b600060208201905061316d6000830184613149565b92915050565b60006020828403121561318957613188612c55565b5b600061319784828501612eab565b91505092915050565b600060c0830160008301516131b86000860182612f7f565b5060208301516131cb6020860182612fa0565b5060408301516131de6040860182612fa0565b5060608301516131f16060860182612f7f565b5060808301516132046080860182612faf565b5060a083015184820360a086015261321c8282612fcf565b9150508091505092915050565b6000602082019050818103600083015261324381846131a0565b905092915050565b61325481612ce4565b811461325f57600080fd5b50565b6000813590506132718161324b565b92915050565b6000806040838503121561328e5761328d612c55565b5b600061329c85828601612eab565b92505060206132ad85828601613262565b9150509250929050565b600080fd5b600080fd5b7f4e487b7100000000000000000000000000000000000000000000000000000000600052604160045260246000fd5b6132f982612d69565b810181811067ffffffffffffffff82111715613318576133176132c1565b5b80604052505050565b600061332b612c4b565b905061333782826132f0565b919050565b600067ffffffffffffffff821115613357576133566132c1565b5b61336082612d69565b9050602081019050919050565b82818337600083830152505050565b600061338f61338a8461333c565b613321565b9050828152602081018484840111156133ab576133aa6132bc565b5b6133b684828561336d565b509392505050565b600082601f8301126133d3576133d26132b7565b5b81356133e384826020860161337c565b91505092915050565b6000806000806080858703121561340657613405612c55565b5b600061341487828801612eab565b945050602061342587828801612eab565b935050604061343687828801612df6565b925050606085013567ffffffffffffffff81111561345757613456612c5a565b5b613463878288016133be565b91505092959194509250565b600067ffffffffffffffff82111561348a576134896132c1565b5b61349382612d69565b9050602081019050919050565b60006134b36134ae8461346f565b613321565b9050828152602081018484840111156134cf576134ce6132bc565b5b6134da84828561336d565b509392505050565b600082601f8301126134f7576134f66132b7565b5b81356135078482602086016134a0565b91505092915050565b60008060006060848603121561352957613528612c55565b5b600084013567ffffffffffffffff81111561354757613546612c5a565b5b613553868287016134e2565b935050602061356486828701612df6565b925050604084013567ffffffffffffffff81111561358557613584612c5a565b5b613591868287016134e2565b9150509250925092565b600080604083850312156135b2576135b1612c55565b5b60006135c085828601612eab565b92505060206135d185828601612eab565b9150509250929050565b7f4e487b7100000000000000000000000000000000000000000000000000000000600052602260045260246000fd5b6000600282049050600182168061362257607f821691505b60208210811415613636576136356135db565b5b50919050565b7f4552433732313a20617070726f76616c20746f2063757272656e74206f776e6560008201527f7200000000000000000000000000000000000000000000000000000000000000602082015250565b6000613698602183612d25565b91506136a38261363c565b604082019050919050565b600060208201905081810360008301526136c78161368b565b9050919050565b7f4552433732313a20617070726f76652063616c6c6572206973206e6f7420746f60008201527f6b656e206f776e6572206f7220617070726f76656420666f7220616c6c000000602082015250565b600061372a603d83612d25565b9150613735826136ce565b604082019050919050565b600060208201905081810360008301526137598161371d565b9050919050565b7f4552433732313a2063616c6c6572206973206e6f7420746f6b656e206f776e6560008201527f72206f7220617070726f76656400000000000000000000000000000000000000602082015250565b60006137bc602d83612d25565b91506137c782613760565b604082019050919050565b600060208201905081810360008301526137eb816137af565b9050919050565b7f4e487b7100000000000000000000000000000000000000000000000000000000600052601160045260246000fd5b600061382c82612dd5565b915061383783612dd5565b9250827fffffffffffffffffffffffffffffffffffffffffffffffffffffffffffffffff0382111561386c5761386b6137f2565b5b828201905092915050565b600061388282612dd5565b91507fffffffffffffffffffffffffffffffffffffffffffffffffffffffffffffffff8214156138b5576138b46137f2565b5b600182019050919050565b7f4e487b7100000000000000000000000000000000000000000000000000000000600052603260045260246000fd5b7f4552433732313a20696e76616c696420746f6b656e2049440000000000000000600082015250565b6000613925601883612d25565b9150613930826138ef565b602082019050919050565b6000602082019050818103600083015261395481613918565b9050919050565b7f4552433732313a2061646472657373207a65726f206973206e6f74206120766160008201527f6c6964206f776e65720000000000000000000000000000000000000000000000602082015250565b60006139b7602983612d25565b91506139c28261395b565b604082019050919050565b600060208201905081810360008301526139e6816139aa565b9050919050565b7f506c65617365207375626d6974207468652061736b696e67207072696365206660008201527f6f7220746865204e465420696e206f7264657220746f20707572636861736500602082015250565b6000613a49603f83612d25565b9150613a54826139ed565b604082019050919050565b60006020820190508181036000830152613a7881613a3c565b9050919050565b7f53656e6420656e6f75676820657468657220746f206c69737400000000000000600082015250565b6000613ab5601983612d25565b9150613ac082613a7f565b602082019050919050565b60006020820190508181036000830152613ae481613aa8565b9050919050565b7f4d616b6520737572652074686520707269636520696e732774206e656761746960008201527f7665000000000000000000000000000000000000000000000000000000000000602082015250565b6000613b47602283612d25565b9150613b5282613aeb565b604082019050919050565b60006020820190508181036000830152613b7681613b3a565b9050919050565b600081905092915050565b6000613b9382612d1a565b613b9d8185613b7d565b9350613bad818560208601612d36565b80840191505092915050565b6000613bc58285613b88565b9150613bd18284613b88565b91508190509392505050565b7f4552433732313a207472616e736665722066726f6d20696e636f72726563742060008201527f6f776e6572000000000000000000000000000000000000000000000000000000602082015250565b6000613c39602583612d25565b9150613c4482613bdd565b604082019050919050565b60006020820190508181036000830152613c6881613c2c565b9050919050565b7f4552433732313a207472616e7366657220746f20746865207a65726f2061646460008201527f7265737300000000000000000000000000000000000000000000000000000000602082015250565b6000613ccb602483612d25565b9150613cd682613c6f565b604082019050919050565b60006020820190508181036000830152613cfa81613cbe565b9050919050565b7f4552433732313a20617070726f766520746f2063616c6c657200000000000000600082015250565b6000613d37601983612d25565b9150613d4282613d01565b602082019050919050565b60006020820190508181036000830152613d6681613d2a565b9050919050565b7f4552433732313a207472616e7366657220746f206e6f6e20455243373231526560008201527f63656976657220696d706c656d656e7465720000000000000000000000000000602082015250565b6000613dc9603283612d25565b9150613dd482613d6d565b604082019050919050565b60006020820190508181036000830152613df881613dbc565b9050919050565b7f45524337323155524953746f726167653a2055524920736574206f66206e6f6e60008201527f6578697374656e7420746f6b656e000000000000000000000000000000000000602082015250565b6000613e5b602e83612d25565b9150613e6682613dff565b604082019050919050565b60006020820190508181036000830152613e8a81613e4e565b9050919050565b6000613e9c82612dd5565b9150613ea783612dd5565b925082821015613eba57613eb96137f2565b5b828203905092915050565b600081519050919050565b600082825260208201905092915050565b6000613eec82613ec5565b613ef68185613ed0565b9350613f06818560208601612d36565b613f0f81612d69565b840191505092915050565b6000608082019050613f2f6000830187612e6a565b613f3c6020830186612e6a565b613f496040830185613149565b8181036060830152613f5b8184613ee1565b905095945050505050565b600081519050613f7581612c8b565b92915050565b600060208284031215613f9157613f90612c55565b5b6000613f9f84828501613f66565b91505092915050565b7f4e487b7100000000000000000000000000000000000000000000000000000000600052601260045260246000fd5b7f4552433732313a206d696e7420746f20746865207a65726f2061646472657373600082015250565b600061400d602083612d25565b915061401882613fd7565b602082019050919050565b6000602082019050818103600083015261403c81614000565b9050919050565b7f4552433732313a20746f6b656e20616c7265616479206d696e74656400000000600082015250565b6000614079601c83612d25565b915061408482614043565b602082019050919050565b600060208201905081810360008301526140a88161406c565b905091905056fea26469706673582212203c6cc2c8393280856ae65505d3ddcf270f21c926cfd1dfc24ce9fdf5e71799b264736f6c63430008090033",
  "linkReferences": {},
  "deployedLinkReferences": {}
}